:020000040800F2
:100000003026002005010008972F00080125000870
:10001000952F0008890A00087938000800000000C0
:100020000000000000000000000000009B2F0008FE
:100030008B0A000800000000992F00089D2F00087F
:100040001F0100081F0100081F0100081F01000810
:100050001F0100081F0100081F0100081F01000800
:100060001F0100081F0100081F0100081F010008F0
:100070001F0100081F0100081F0100081F010008E0
:100080001F0100081F0100081F0100081F010008D0
:100090001F0100081F0100081F0100081F010008C0
:1000A0001F0100081F0100081F0100081F010008B0
:1000B000493000081F010008F53000081F01000842
:1000C0001F0100081F0100081F0100081F01000890
:1000D0001F01000885340008913400081F01000842
:1000E0001F0100081F0100081F010008DFF810D0E1
:1000F00000F092FC004800479D4D0008AFF30080DF
:10010000302600200648804706480047FEE7FEE705
:10011000FEE7FEE7FEE7FEE7FEE7FEE7FEE7FEE7B7
:1001200001300008ED0000082DE9F05F05460020D1
:1001300092469B4688460646814640241BE0284658
:1001400041464746224600F02FF853465A46C01A09
:10015000914110D311461846224600F016F82D1A88
:1001600067EB01084F4622460120002100F00DF800
:1001700017EB00094E41201EA4F10104DFDC4846C4
:1001800031462A464346BDE8F09F202A04DB203A48
:1001900000FA02F1002070479140C2F1200320FADA
:1001A00003F3194390407047202A04DB203A21FAD8
:1001B00002F00021704721FA02F3D040C2F1200280
:1001C0009140084319467047202A06DBCB17203A96
:1001D00041FA02F043EAE07306E041FA02F3D0404C
:1001E000C2F120029140084319467047D2B201E0A3
:1001F00000F8012B491EFBD270470022F6E710B52C
:1002000013460A4604461946FFF7F0FF204610BD84
:1002100030B505462A460B4612F8010B13F8014B80
:1002200008B1A042F8D01CB1002802D06D1CF1E743
:10023000284630BD421C10F8011B0029FBD1801A52
:100240007047F0B480EA0102D40F4200B2EB410FD4
:1002500002D20246084611464A0042D0C30DDDB222
:10026000C1F3C752AD1A202D35DAC1F3160141F49E
:10027000000204B15242C5F1200602FA06F12A41F9
:100280001044B3EBD05F23D0C4B1012DA0EBC35019
:1002900009DCF0BC4FF0004202EAC352DBB200F5C9
:1002A000000000F0CEBA400000F1807000EBC350B7
:1002B000A0F1807040EAD170490009E0490841EAA4
:1002C000C071A0EBC35000F50000400800EBC35024
:1002D000F0BC00F0ADBA6142012202EB4101001B0B
:1002E000F6E7F0BC704781F00041AAE780F00040DB
:1002F000A7E780EA010210B502F00043400022D0D7
:100300004A001FD0010E01EB1261C0F35600C2F388
:10031000560240F4000042F40002A0FB0220000458
:100320007F39140400D0401C50EA124001D4400030
:10033000491EC2B20C0604EBD010401C4008802AB3
:1003400002D003E0002010BD20F00100002900DAF7
:100350000020184310BD30B480EA010202F00045CD
:1003600030F0004221F0004013D090B1C30DD40D05
:10037000C2F31601C0F31600E41A41F4000140F480
:1003800000027D34914201D3641C00E04900002C3E
:1003900002DA30BC002070474FF400000023914285
:1003A00001D3891A034340084FEA4101F7D151B103
:1003B000914202D14FF0004105E002D24FF001011D
:1003C00001E06FF0010103EBC450284430BC00F0A1
:1003D0002FBA2DE9FE4F804681EA0300C00F0C467C
:1003E000009021F0004123F00045B8EB0200A94144
:1003F00005D24046214690461C460B46024623F055
:100400000040104347D0270DC7F30A00C3F30A5139
:100410000290401A019040286BDAC3F3130040F4B5
:10042000801B0098924620B10023D2EB030A63EBB5
:100430000B0B01985946C0F140025046FFF7A5FE4C
:1004400006460D4650465946019AFFF7BDFE10EB91
:1004500008006141002487EA115284EAE7731A43D5
:1004600040D0009A62B3019A012A4FEA075215DC84
:10047000001B61EB02014FF0004202EA0752CDE996
:100480000042001C41F5801132462B4600F045FA2F
:1004900003B0BDE8F08F40462146F9E7001B61EB51
:1004A0000201001C41F5801300185B412018A2F5E1
:1004B000001747EB030140EAD570B6196D4111E012
:1004C0006D084FEA360645EAC0754FEA0752001B31
:1004D00061EB0201001C41F5801149084FEA300030
:1004E0000019514132462B4603B0BDE8F04F00F0F1
:1004F00005BA0098012240000023D0EB020263EB12
:10050000E073009821464FEAE074B8EB000061EB1D
:100510000401E9E783F000435BE781F0004158E71D
:100520002DE9FE4F81EA030404F0004421F000416C
:1005300000944FF0000B23F0004350EA01045ED01A
:1005400052EA03045BD0C3F30A54C1F30A552C44A6
:10055000A4F2F3340194A0FB0254C1F3130141F45B
:100560008011C3F3130343F4801301FB024400FB27
:10057000034E840A970A44EA815447EA8357A4FB4E
:10058000076802958D0A05FB07854FEA932C04FB4B
:100590000C542705029D4FEA065847EA1637B5EB7B
:1005A00008056EEB070C870E920E47EA811742EAA8
:1005B0008312A7FB0201B6EB0B0164EB00042B0DC9
:1005C00043EA0C335E1844EB1C50DA465146E7FB15
:1005D0000201C5F313044FEA0B3343EA14534FEA05
:1005E0000432019C43EA0603A4F10C040294009C2B
:1005F000CDE900B400F091F903B0BDE8F08F002020
:100600000146F9E72DE9F04D81EA030404F0004BBF
:1006100021F0004514464FF0000A23F0004150EA53
:10062000050220D054EA01021DD0C5F30A57024644
:10063000C5F31303C1F31300C1F30A5640F4801548
:1006400043F48013A7EB0608101BD64608F2FD38CA
:1006500073EB050002D308F1010801E092185B4139
:10066000B8F1000F03DA00200146BDE8F08D00204C
:100670004FF48011064684460EE0171B73EB050706
:1006800005D3121B63EB050306434CEA010C490832
:100690004FEA300092185B4150EA0107EDD152EA6F
:1006A000030012D082EA040083EA0501084305D062
:1006B000101BAB4106D20122002306E000224FF0BE
:1006C000004302E06FF0010253101AEB06004CEBFE
:1006D000085110EB0A0041EB0B01BDE8F04D00F0B2
:1006E0000DB970B521F0004303430CD0C1F30A5596
:1006F0000024D5EB040564EB0403D617AD1AB3410F
:1007000002DB0020014670BD201841EB025170BD94
:1007100096230022114600F094B80EB5C10F80EA6E
:10072000E0700844CA07002140F233438DE80E0010
:100730000A460B4600F0F1F803B000BD0EB540F2DA
:10074000334102910021CDE900110A460B4600F029
:10075000E4F803B000BD20F00040C10DC0F3160066
:1007600040F400007F2901DA00207047962903DC5D
:10077000C1F19601C840704796398840704700F033
:10078000004230F000400AD0C10D01F56071C0F3A5
:10079000160042EA0151C208400711437047002089
:1007A0000146704701F0004330B421F0004150EAA7
:1007B000010206D00A0DA2F56072C1F31301002AEE
:1007C00002DC30BC00207047440F44EAC104C10081
:1007D000E01830BC00EBC25000F02AB8002801DB62
:1007E000C0F10040002901DBC1F1004181427047A6
:1007F000002801DBC0F10040002901DBC1F100410C
:100800008842704730B50B46014600202022012463
:1008100009E021FA02F59D4205D303FA02F5491BCE
:1008200004FA02F52844151EA2F10102F1DC30BDE4
:100830000029A8BF7047401C490008BF20F00100F4
:10084000704710B4B0FA80FC00FA0CF050EA0104D2
:1008500004BF10BC704749B1CCF1200421FA04F464
:1008600011FA0CF118BF012121430843A3EB0C013D
:10087000CB1D4FEA00614FEA102042BF002010BCA0
:10088000704700EBC35010440029A4BF10BC704750
:10089000401C490008BF20F0010010BC7047F0B4B4
:1008A000002802DCF0BC00207047C0F3C751C0F341
:1008B000160040F40000CA0701D14000491E3F2243
:1008C00002EB6105002211464FF4000626FA01F3FF
:1008D0001344D418844201D8001B1A464000491C16
:1008E0001729F3DD5100814202D24FF0FF3100E0C1
:1008F000002102EBC550F0BCFFF79ABF10B5141EE3
:1009000073F1000408DA401C41F1000192185B41C8
:100910001A4301D120F0010010BD2DE9F04D92469F
:100920009B4611B1B1FA81F202E0B0FA80F22032B6
:100930009046FFF72AFC04460F4640EA0A0041EAC7
:100940000B0153465A46084313D0114653EA01009F
:1009500019D0C8F140025046FFF726FC05460E4666
:10096000504659464246FFF710FC084305D0012087
:1009700004E020463946BDE8F08D0020054346EAF4
:10098000E0762C4337430A986305E40AA0EB08009D
:100990000022FD0A44EA47540A3002D500200146ED
:1009A000E9E7010510196941DDE9084500196941C8
:1009B000BDE8F04DA2E7C1F30A52C1F3130140F2C2
:1009C000FF3341F480119A4202DA00200146704759
:1009D00040F233439A42A2F2334202DC5242FFF722
:1009E000E3BBFFF7D2BB000030B5041E71F1000479
:1009F00004DB4FF00044404264EB0101141E73F12C
:100A0000000405DB1C464FF00043524263EB040335
:100A1000994208BF904230BD064C074D06E0E068A1
:100A200040F0010394E8070098471034AC42F6D335
:100A3000FFF760FBECCF00080CD0000870B504464F
:100A400000688168C943C9071CD1816821F0010190
:100A5000816000F0B3FB05460FE000BF00F0AEFB85
:100A6000401B022809D9A06A40F01000A062E06A89
:100A700040F00100E062012070BD20688068C04342
:100A8000C007EBD0002070BDFEE770477047000044
:100A9000F8B50024009490F824202546012A12D0AD
:100AA000012280F824204A681F23072A0DD20668F5
:100AB000776B521E02EB820293409F430B68934078
:100AC0001F43776319E00220F8BD06680D2A0AD299
:100AD000376BD21F02EB820293409F430B68934017
:100AE0001F43376309E0F76A0D3A02EB8202934035
:100AF0009F430B6893401F43F7620A680723066809
:100B00000A2A0AD3F7680A3A02EB420293409F434B
:100B10008B6893401F43F76008E0376902EB42029D
:100B200093409F438B6893401F4337610A68102AA4
:100B300001D0112A20D1124B02689A4217D1936832
:100B40001B0219D4936843F40003936009681029C9
:100B500012D10C490C4A0968B1FBF2F101EB810199
:100B6000490000E0491E00910029FBD104E0816AA0
:100B700041F020018162012480F824502046F8BD14
:100B8000002401408000002040420F002DE9F04188
:100B900004004FF000057FD0A06A002628B9E66265
:100BA00084F82460204600F081F82046FFF746FFD5
:100BB000A16AC90600D420B1A06A40F01000A0626A
:100BC0006AE0A16A21F4885141F00201A16233492F
:100BD00023688B42E16904D1B1F5402F01D14FF474
:100BE0000021277B4FF4807C41EA470261680A4379
:100BF000A168614508D0012906D0002194F814E0CD
:100C0000BEF1010F02D00AE06146F7E7C7B1A76A5B
:100C100047F02007A762E76A47F00107E7625F68CD
:100C200027F469470F435F60236899681C4F394078
:100C300011439960A16861450BD0012909D00CE0EE
:100C4000DFF860E0A7690EEB47370F4347F4006118
:100C5000E5E7218A0D05A5F580152168CB6A23F407
:100C600070032B43CB62216889680F4B1940914276
:100C700008D1E662A16A21F0020141F00101A162FE
:100C8000BDE8F081A06A20F0020040F01000A062F0
:100C9000E06A40F00100E0620120F1E7003C014021
:100CA000FDF7E1FF00E0FFFFFE0E1FFF00B585B07E
:100CB0000021009101910291039100680E49884240
:100CC00018D10E48816941F400718161816901F494
:100CD00000710491816941F0040181618069694674
:100CE00000F004000490802000900320019004484C
:100CF00000F062F905B000BD002401400010024080
:100D00000008014070B54379012B20D001254571C1
:100D1000022303710668346802F0100340F6FE7285
:100D20009A409443D1E900210A439A402243326019
:100D300002681468C02199408C43146002681368EB
:100D40008B431360057100214171084670BD02207C
:100D500070BD70B5040003D02079002510B105E006
:100D6000012070BD6571204600F008F80220207156
:100D7000256101202071002070BD000000B585B004
:100D80000021009101910291039100680E4988426F
:100D900018D10E48C16941F00051C161C16901F02B
:100DA00000510491816941F00401816180696946C3
:100DB00000F00400049010200090032001900448EB
:100DC00000F0FAF805B000BD0074004000100240C9
:100DD0000008014018B5046800940068104421B16F
:100DE000143000900360002018BD0830F9E770B59A
:100DF0004279012A1ED00122427102230371046844
:100E0000266801F0100302FA03F52E43266000293C
:100E1000016811D00C6804F470153C249C40A54274
:100E200003D14B6843F002034B6002710021417112
:100E3000084670BD022070BD0B68C3F383030F2BFF
:100E4000F3D14B6843F00103EEE710B50268136875
:100E500001F01004012101FA04F4A34313600171AD
:100E6000002010BD2DE9F05F90F821100024022928
:100E700003D004218163012485E001680A6822F01F
:100E80000E020A6001680A6822F001020A603F4E01
:100E90003E4FB215DFF8F4C0DFF8F090DFF8ECA0B9
:100EA000DFF8E8B0DFF8E4E00168783F13011502ED
:100EB000ACF1640CA9F15009AAF13C0AABF1280B82
:100EC000AEF1140E4FF48018B14227D9B9420ED0BA
:100ED000614512D049451DD0514518D0594518D00B
:100EE000714501D1424615E0294EB14201D101229E
:100EF00010E0274E1436B14201D110220AE0244EF0
:100F00002836B14206D0224A3C32914201D11A46DB
:100F100000E02A461E49091F0A602BE0B94213D09F
:100F2000614517D0494522D051451DD059451DD0A6
:100F3000714501D142461AE0B14202D14FF08072B0
:100F400015E0134EB14201D1012210E0104E1436CB
:100F5000B14201D110220AE00D4E2836B14206D02E
:100F60000B4A3C32914201D11A4600E02A46074919
:100F700080394A60012180F82110002180F820107A
:100F8000416B01B188472046BDE8F09F80000240D8
:100F90000804024070B5044600F010F90546601CD4
:100FA00002D004480078044400F008F9401BA04235
:100FB000FAD370BD740000202DE9F84FDFF8C89116
:100FC000002409F1040A0AF1040B23460F270BF150
:100FD000040ED1E00125A54006EA0502AA4276D119
:100FE000DFF8A8C14E68A6EB0C0866452BD00DDCD7
:100FF000032E34D005DC36B3012E19D0022E2FD1AA
:101000001BE0112E16D0122E2AD119E0B8F5881F38
:1010100019D006DCB8F5803F15D0B8F5801F1FD178
:1010200011E0B8F5001F0ED0B8F5041F18D10AE082
:10103000CB6815E0CB681B1D12E0CB6808330FE0CE
:10104000CB680C330CE08B682BB1012B4FF00803FD
:1010500003D0456104E0042302E0056100E00023C1
:10106000FF2A01D8064601E000F104064FEA840594
:1010700001D9A5F12005D6F8008007FA05FC28EA79
:101080000C0803FA05F548EA0508C6F800804D6823
:10109000ED0070D53E4DAE6946F00106AE61AD691A
:1010A00024F0030605F0010500953A4D06EB050C0A
:1010B000DCF80850A607360F07FA06F825EA0805F7
:1010C000DFF8D480404503D14FF0000825E052E01E
:1010D000DFF8C880404502D14FF001081DE0DFF87D
:1010E000C080404502D14FF0020816E0DFF8B4801E
:1010F000404502D14FF003080FE0DFF8AC804045D7
:1011000002D14FF0040808E0DFF8A080404502D18A
:101110004FF0050801E04FF0060808FA06F848EA23
:101120000508CCF808804D68D9F80060ED034D46FD
:1011300001D5164300E096432E604D68DAF8006052
:10114000AD03554601D5164300E096432E604D6829
:10115000DBF80060ED025D4601D5164300E09643E2
:101160002E604D68DEF80060AD02754601D516436D
:1011700000E096432E60641C0A681646E2407FF445
:1011800029AFBDE8F88F00000004014000001110F5
:10119000001002400000014000080140000C014026
:1011A000001001400014014000180140001C0140E3
:1011B0000AB1016170470904FBE70000014880683B
:1011C000704700007400002070B504001BD094F834
:1011D0003D00002520B984F83C50204600F04AFA32
:1011E000242084F83D002068016821F0010101609D
:1011F00000F030FC4D4A6168914201D84C4900E052
:101200004C49884201D2012070BD4B492368B0FB94
:10121000F1F15E6826F03F060E435E60636893421C
:1012200006D94FF4967359434FF47A73B1FBF3F137
:101230002368491C1E6A26F03F0631431962616823
:10124000914210D84900401EB0FBF1F2521CC2F38B
:101250000B02042A01D2042022E0B0FBF1F0401C72
:10126000C0F30B001CE0A368F3B301EBC10202EB77
:101270000116421EB2FBF6F2521C42F480421205E5
:1012800049D093B301EBC10202EB0111401EB0FB48
:10129000F1F0401CC0F30B0040F4804040F40040EB
:1012A0002168CA694CF6FF739A431043C861D4E9B8
:1012B0000701084321680A6822F0C0021043086051
:1012C000D4E9030101432068826848F2FF339A435E
:1012D00011438160D4E9050108432168CA6822F0FE
:1012E000FF021043C86001E00EE016E020680168CC
:1012F00041F0010101602564202084F83D00256350
:1013000084F83E50002070BD01EB4106421EB2FB46
:10131000F6F2521CB3E70120C2E701EB4101401E87
:10132000B0FBF1F0401CC0F30B00B7E7A086010052
:1013300080841E0000093D0040420F002DE9F84F57
:101340001F4690468A460446DDF82890FFF736FF90
:10135000054694F83D00202879D1192301227749C8
:101360002046009501F0B8F90028F5D194F83C002A
:1013700001286CD0012084F83C0020680168C9076E
:1013800003D1016841F0010101602068016821F486
:1013900000610160222084F83D00102084F83E00A6
:1013A00000262664C4F824806785608D2085644803
:1013B000E0622B464A465146204601F0B9F8002823
:1013C0007ED1208D5F4F68B1012814D0022820689B
:1013D00001681ED041F48061016020684169806924
:1013E00000909DE02068416981690091016841F4A5
:1013F0000071016094E02068016821F4806101605F
:1014000072B62068416981690091016841F40071F8
:101410000AE041F40061016072B6206841698169A7
:101420000091016821F48061016062B678E00328D0
:1014300050D801280CD002284B464FF00002394604
:10144000204600950FD001F047F9C8BB10E073E0CB
:101450002A464946204601F0BEF988BB206800694B
:10146000616A087053E001F037F948BB72B61AE0C0
:101470002068016821F48061016072B6206800690B
:10148000616A0870606A401C6062208D401E208581
:10149000608D401E60854B460022394620460095EF
:1014A00001F01AF960B92068016841F40071016027
:1014B00020680069616A0870606A401C606200E030
:1014C0000EE0218D491E2185618D491E618562B620
:1014D00021681AE02A464946204601F07CF910B1FD
:1014E0000120BDE8F88F20680069616A0870606AB1
:1014F000401C6062218D491E2185618D491E6185D8
:1015000021684A69D24352070AD409690170606AA6
:10151000401C6062208D401E2085608D401E6085CD
:10152000208D002883D1202084F83D0084F83E607F
:1015300084F83C600020D4E70220D2E702001000CB
:101540000000FFFF040001002DE9F84F1F46904600
:101550008A460446DDF82890FFF730FE054694F8E9
:101560003D0020287FD119230122404920460095C3
:1015700001F0B2F8002876D194F83C00012872D02E
:10158000012084F83C0020680168C90703D1016884
:1015900041F0010101602068016821F400610160EF
:1015A000212084F83D00102084F83E0000262664A7
:1015B000C4F824806785608D20852D48E0622B4625
:1015C0004A465146204601F01DF890B9206841690D
:1015D0008069009036E02A464946204601F02EF9FF
:1015E00050B1206C042804D12068016841F40071D6
:1015F00001600120BDE8F88F606A21680078086109
:10160000606A401C6062618D491E6185218D491EA2
:1016100089B2218522685369DB435B070BD451B142
:1016200000781061606A401C6062608D401E6085B9
:10163000208D401E20852A464946204601F026F886
:101640000028CED1208D0028C5D154F83D0B01686B
:1016500041F400710160202004F81E09E6776677E6
:101660000020C7E7FFE70220C4E7000002001000E7
:101670000000FFFF30B585B000210091019102917B
:1016800003911E4D03681E4C122103221D48AB42DC
:1016900016D1A36943F00803A361A369039203F081
:1016A00008030493C023CDE900316946FFF784FCA9
:1016B000E06940F40010E061E06900F4001019E016
:1016C000114DAB4217D1A36943F00803A361A3698D
:1016D000039203F0080304934FF44063CDE9003113
:1016E0006946FFF769FCE06940F48000E061E06969
:1016F00000F48000049005B030BD000000540040AC
:1017000000100240000C014000580040024881686F
:10171000027811448160704774000020074810B5BA
:10172000016841F010010160032000F075F800200D
:1017300000F006F800F024F8002010BD0020024060
:1017400070B50D4D04464FF47A712878B1FBF0F076
:101750000A490968B1FBF0F000F062FB48B9102CAF
:1017600007D200222146501E00F036F800206C609F
:1017700070BD012070BD00007400002080000020BA
:101780000C4808B5816941F001018161816901F06E
:1017900001010091C16941F08051C161C06900F04F
:1017A000805000900448416821F0E06141F00071F0
:1017B000416008BD0010024000000140002809DB24
:1017C00000F01F02012191404009800000F1E0205B
:1017D000C0F8001170470000F0B40E4B1B680C46B7
:1017E000C3F30223C3F10705042D00D90425191DF5
:1017F000072901D2002300E0DB1E012606FA05F1CD
:10180000491E214099409E40761E16403143F0BC4F
:1018100002F065B80CED00E0064900F00702086828
:101820004FF6FF03184040EA0220034A10430860C5
:10183000704700000CED00E00000FA052DE9F843C8
:1018400005460078354CC00754D0E0690026C0003A
:1018500008D4E06940F08050E061E069012600F0C2
:10186000805000902E480168C90512D40168804656
:1018700041F480710160FFF7A1FC074605E000BF5D
:10188000FFF79CFCC01B642823D8D8F80000C005D3
:10189000F6D5206A10F4407021D0A98801F4407177
:1018A00081421CD0206A1F49012220F440700A6046
:1018B00000220A602062C00711D0FFF77FFC0746B4
:1018C00041F2883808E000BFFFF778FCC11B4145B2
:1018D00002D90320BDE8F883206A8007F4D5206A86
:1018E000696820F44070084320621EB1E06920F06E
:1018F0008050E0612878800705D56068A96820F4E9
:101900004040084360602878C00605D56068696972
:1019100020F48000084360600020DBE700100240F4
:1019200000700040400442422DE9F0470F46050098
:1019300061D0434E306800F00700B84209D23068E9
:1019400020F0070038433060306800F00700B842EC
:1019500051D128683B4C810712D5400703D56068F8
:1019600040F4E06060602878000703D5606840F4C8
:10197000605060606068A96820F0F0000843606013
:101980002878C00728D06868012810D0216802286C
:1019900010D0890700292EDA616821F00301014384
:1019A0006160FFF70BFC804641F288390DE0216849
:1019B0008903EFE78901EDE7FFF700FCA0EB0801E1
:1019C000494502D90320BDE8F0876068696800F0E6
:1019D0000C00B0EB810FEFD1306800F00700B84287
:1019E0000BD9306820F0070038433060306800F0D1
:1019F0000700B84201D00120E5E72878400705D567
:101A00006068E96820F4E0600843606028780007B7
:101A100006D56068296920F4605040EAC100606022
:101A200000F038F86168084AC1F30311515CC840FE
:101A30000649086006480068FFF782FE0020C2E7FA
:101A400000200240001002409BCF000880000020D0
:101A5000780000200448054900684968044AC1F339
:101A60000221515CC84070478000002000100240F5
:101A7000ABCF00080448054900684968044AC1F32F
:101A8000C221515CC8407047800000200010024015
:101A9000ABCF000812A185B00FC98DE80F0014A0CC
:101AA000144A006804905168134801F00C03042B99
:101AB00010D0082B0ED1C1F38343C9031DF80300D6
:101AC0000AD5516804AAC1F34041515C0A4A504307
:101AD000B0FBF1F005B0704708494843FAE7000051
:101AE00002030405060708090A0B0C0D0E0F10105F
:101AF000010200000010024000127A0000093D00BF
:101B00002DE9F84F040070D02078C04DC00749D0AF
:101B10006868C0F38100012807D06868C0F38100BD
:101B2000022809D16868C00306D52868800339D522
:101B300060680028E7D035E06068B0F5803F0BD0E2
:101B400010B1B0F5A02F11D0286820F480302860A3
:101B5000286820F4802002E0286840F48030286063
:101B6000606890B1FFF72AFB06460AE0286840F457
:101B700080202860F0E700BFFFF720FB801B64286F
:101B800073D828688003F7D50CE0FFF717FB0646EB
:101B900005E000BFFFF712FB801B6428F0D828681F
:101BA0008003F7D420789A4E80074FF001094FF058
:101BB000000839D5686810F00C0F07D06868C0F3CA
:101BC0008100022809D16868C00306D4286880070C
:101BD00014D52069012808D110E02069B0B1C6F8F9
:101BE0000090FFF7EBFA074605E00AE1FFF7E6FA97
:101BF000C01B0228C4D828688007F7D52868616907
:101C000020F0F80040EAC10028600DE0C6F800802E
:101C1000FFF7D4FA074604E0FFF7D0FAC01B02280A
:101C200023D828688007F7D4207800072CD5794876
:101C3000A169D9B1C0F80090FFF7C0FA074604E0E7
:101C4000FFF7BCFAC01B02280FD8686A8007F7D5D7
:101C500071484FF4FA510068B0FBF1F0009000BFFA
:101C60000098411E0091FAD20EE080E0C0F800809A
:101C7000FFF7A4FA074604E0FFF7A0FAC01B02280A
:101C800075D8686A8007F7D42078400760D5E8697E
:101C90000027C00008D4E86940F08050E861E86996
:101CA000012700F0805000905C480168C90513D4FA
:101CB0000168834641F480710160FFF77FFA824634
:101CC00006E000BFFFF77AFAA0EB0A0064284ED8BE
:101CD000DBF80000C005F5D5E06801280AD008B19E
:101CE000052813D0286A20F001002862286A20F015
:101CF000040002E0286A40F001002862E06841F236
:101D0000883B98B1FFF75AFA82460BE0286A40F008
:101D100004002862EEE700BFFFF750FAA0EB0A01CB
:101D200059455AD8286A8007F6D50CE0FFF746FADD
:101D3000824605E0FFF742FAA0EB0A0159454CD86C
:101D4000286A8007F6D41FB1E86920F08050E86166
:101D5000E06988B36968C1F38101022944D002288F
:101D6000C6F8608004D0FFF729FA044638E034E072
:101D7000FFF724FA074604E0FFF720FAC01B022809
:101D80002BD828688001F7D4206AB0F5803F05D1B0
:101D90006868A16820F4003008436860D4E908014D
:101DA0000843696821F4741108436860C6F86090BC
:101DB000FFF704FA044606E025E000BFFFF7FEF94E
:101DC000001B022809D828688001F7D51BE000BF56
:101DD000FFF7F4F9001B022802D90320BDE8F88FB1
:101DE00028688001F4D40EE00128F7D06868226AE0
:101DF00000F48031914204D1616A00F4701088428D
:101E000001D00120EAE70020E8E7000000100240CE
:101E100000004242800442428000002000700040E6
:101E200010B5401EB0F1807F01D3012010BD4FF0EE
:101E3000E02460610F21601701F051FD0020A061D6
:101E400007202061002010BD7047704770B590F8E2
:101E50003C20012A19D0012400F83C4F0222427094
:101E600050F83C3C5A689D6822F070060A68496840
:101E7000324325F0800529435A6050F83C2C91608C
:101E8000447000210170084670BD022070BD10B57D
:101E9000040003D094F83D0010B107E0012010BD0C
:101EA000002084F83C00204600F00CF8022084F862
:101EB0003D00211D206801F049F9012084F83D0012
:101EC000002010BD08B501681448B1F1804F14D04E
:101ED000134A914220D1C16941F00401C161C06936
:101EE000002200F00400009011461E20FFF774FC51
:101EF0001E20BDE80840FFF761BCC16941F0010147
:101F0000C161C069002200F00100009011461C2050
:101F1000FFF762FC1C20ECE708BD00000010024047
:101F2000000800400168CA6842F00102CA60006807
:101F3000816801F00701062903D0016841F0010121
:101F40000160002070470168CA6822F00102CA607F
:101F50000068016A41F21112114207D1016A921020
:101F6000114203D1016821F0010101600020704796
:101F700070B5044690F83C00012817D0012584F87C
:101F80003C50022084F83D002068826822F07702ED
:101F900022F47F4282600868502830D00DDC20286F
:101FA0004DD005DC98B310283BD148E0022070BD2D
:101FB000302844D0402834D139E0602828D0702817
:101FC00006D0B0F5805F2CD0B0F5005F29D10AE0D3
:101FD000CB68D1E90121206801F0FEF82068816812
:101FE00041F0770109E0CB68D1E90121206801F0D7
:101FF000F3F82068816841F48041816011E0CA688B
:102000004968206801F0FAF85021206807E016E0DE
:10201000CA684968206801F002F96021206801F06F
:10202000E5F884F83D50002084F83C0070BDCA6893
:102030004968206801F0E2F840212068EFE7226853
:1020400001461046EBE7704770B504460068016929
:102050004FF00005C943890715D4C168C9438907F2
:1020600011D4E91E01610120207720688069800772
:10207000204602D0FFF7E7FF04E000F098F8204682
:1020800000F096F8257720680169C943490717D4FD
:10209000C168C943490713D46FF0040101610220EC
:1020A00020772068806910F4407F204602D0FFF737
:1020B000CAFF04E000F07BF8204600F079F82577AD
:1020C00020680169C943090716D4C168C9430907D3
:1020D00012D46FF008010161042020772068C069E4
:1020E0008007204602D0FFF7AEFF04E000F05FF863
:1020F000204600F05DF8257720680169C943C906CC
:1021000017D4C168C943C90613D46FF01001016127
:10211000082020772068C06910F4407F204602D054
:10212000FFF791FF04E000F042F8204600F040F88D
:10213000257720680169C943C90708D1C168C94327
:10214000C90704D1891E0161204600F032F82068D9
:102150000169C943090609D4C168C943090605D400
:102160006FF0800101612046FFF76EFE2068016973
:10217000C943490609D4C168C943490605D46FF06B
:1021800040010161204600F015F820680169C9434B
:1021900089060BD4C168C943890607D46FF02001B2
:1021A00001612046BDE87040FFF74FBE70BD70472B
:1021B000704770477047704770B5026804461068F2
:1021C000D168536910F00F0F50D003F0010501F4EE
:1021D000907635435DD0C20705D0CA0503D5E26BC2
:1021E00042F00102E263420705D5DA0703D0E26B51
:1021F00042F00202E263820705D5DA0703D0E26B00
:1022000042F00402E263020705D5DA0703D0E26B6D
:1022100042F00802E263E26B002A33D0800604D564
:10222000880602D5204601F022F820684069E16B5B
:10223000C0F38010090700D428B3204601F009F844
:102240002068416949061AD5416921F04001416180
:10225000606BA0B11B494163606BFEF703FE002871
:1022600010D0606B416BBDE870400847830610D505
:102270008B060ED52046BDE8704000F0F8BF204622
:10228000FFF799FF70BD2046FFF795FF0020E06340
:1022900070BD030606D50B0604D52046BDE8704088
:1022A00001F08CB84006F3D54806F1D5D168204638
:1022B00021F04001D160202184F8391000F01FF98D
:1022C00070BD00004332000870B5040004D094F8DB
:1022D0003900002510B106E0012070BD84F83850A7
:1022E000204600F023F8242084F839002068C168D3
:1022F00021F40051C160204601F004F82068016912
:1023000021F4904101612068416921F02A01416175
:102310002068C16841F40051C160E563202084F861
:10232000390084F83A00002070BD000070B586B016
:10233000002400940194029403942E4E03682E49C5
:10234000022003222D4DB34226D18B6943F48043F2
:102350008B618B6903F4804304938B6943F004031E
:102360008B618969039201F0040104910102CDE9B6
:10237000001069462846FEF71FFE2815CDE9000427
:10238000694628460294FEF717FE002211462520D2
:10239000FFF722FA252028E0194EB34227D1CB6956
:1023A00043F40033CB61CB6903F4003304938B69AE
:1023B00043F004038B618969039201F004010491E5
:1023C0000421CDE9001069462846FEF7F5FD0820F6
:1023D000CDE90004694628460294FEF7EDFD00228F
:1023E00011462620FFF7F8F92620FFF7E7F906B097
:1023F00070BD00000038014000100240000801409C
:102400000044004070472DE9F843044690F8390035
:102410001F4616460D46202850D1A5B19EB194F80E
:10242000380001284AD0012084F838004FF0000815
:10243000C4F83C80212084F83900FEF7BFFEA68452
:102440008146E68426E00120BDE8F883E08C401E4A
:10245000E084A0684B46B0F5805F4FF000024FF07B
:1024600080012046009703D000F0D9FFE8B90DE0C5
:1024700000F0D5FFC8B928882168C0F3080048607B
:10248000206908B16D1C05E0AD1C03E0216815F85A
:10249000010B4860E08C0028D8D14B460022402137
:1024A0002046009700F0BBFF08B10320CCE72020B6
:1024B00084F8390084F838800020C5E70220C3E79B
:1024C00090F83930202B18D1A9B1A2B190F838304A
:1024D000012B12D001628284C2840021C1632122B7
:1024E00080F8392080F838100068C16841F0800118
:1024F000C16000207047012070470220704770477C
:10250000FEE701684A69D24352050FD46FF4806236
:102510004A61002140F8301F202242738173026912
:1025200042F00402026101730120704700207047ED
:102530002DE9F84F0446C06A1E4692460D462168B2
:102540000A6842F480620A60082807D0012805D092
:1025500010F5803F02D0206B112804D1206801685B
:1025600041F4807101604FF001185346002241464A
:102570002046009600F0B0F8F0BB206908F1010990
:10258000B0F5804F0FD00620216800EAD51747F03C
:10259000F00008613346524608F10701204600F07A
:1025A000CFF848BB03E0E8B240F001001BE021682F
:1025B000E8B20861334652464946204600F0C0F86A
:1025C000D0B92068416981690091016841F4807146
:1025D00001605346002241462046009600F07CF8F8
:1025E00050B947F0F1002168086133465246494628
:1025F000204600F0A5F800E001E0002800D001200E
:10260000BDE8F88FF8B50446C06A1E460D46174669
:10261000082807D0012805D010F5803F02D0206B94
:10262000122804D12068016841F4807101601346CA
:1026300000224FF001112046009600F04DF808BB33
:102640002069B0F5804F0ED00620216800EAD51031
:1026500040F0F000086133463A460B49204600F04E
:102660006FF878B902E005F0FE0000E0E8B22168FA
:102670000861054933463A46891F204600F060F854
:10268000002800D00120F8BD0800010070B51646F2
:102690000D4604460DE02046FFF733FF08B1012048
:1026A00070BD681C05D0FEF789FD801BA84207D8C5
:1026B00035B120684069C0434007ECD4002070BDAC
:1026C000002044F8300F20216173A073216941F08C
:1026D000200121612073E2E72DE9F0471E46904674
:1026E0000D460446C1F30747DDF8209008E0701C52
:1026F00006D0FEF763FDA0EB0900B0420FD876B11B
:102700002068012F18D0806925EA00000004000C21
:1027100014D000214145EAD00020BDE8F087002018
:1027200044F8300F20216173A073216941F020012A
:10273000216120730120F0E74069E5E70121E9E725
:102740002DE9F0479A4691460E46044600254FF083
:102750002008C1F3074725E020684069C0434005D1
:1027600014D42068016841F40071016021686FF49D
:1027700080604861256384F83D8084F83E50206C79
:1027800040F00400206484F83C501FE0B9F1FF3FA2
:1027900008D0FEF713FDA0EB0A0149450CD8B9F1AA
:1027A000000F09D02068012F13D0806926EA0000AD
:1027B0000004000C0BD0CFE744F8305F84F80D80A4
:1027C000A573206940F02000206125730120BDE839
:1027D000F0874069EAE72DE9F041002590460E4672
:1027E0000446202717E04069C043C0060CD454F8C3
:1027F000301B6FF01000486144F810596777A577D7
:10280000206A2062257717E0FEF7D8FCA0EB0800CD
:10281000B04208D83EB120684169C9434906E2D4B4
:102820000020BDE8F08144F8305F6773A57320692C
:1028300040F02000206125730120F2E770B51646B4
:102840000D4604460DE02046FFF75BFE08B101206F
:1028500070BD681C05D0FEF7B1FC801BA84207D8EC
:1028600035B120684069C0430006ECD4002070BD3B
:10287000002044F8300F20216173A073216941F0DA
:10288000200121612073E2E710B50021022000F051
:10289000C1F90021042000F0BDF90021BDE810407D
:1028A000032000F0B7B9C007000E01F0010140EAB3
:1028B000811002F0010140EA411003F0010140EAF9
:1028C0000111012000F0A6B970B51F4C05460E4657
:1028D000206820F4005020604FF49670FEF75AFBF9
:1028E000206840F4005020601848C0E9025600F00B
:1028F00081F9FFF7C9FF012000F06EF9032000F015
:1029000033F90F21084600F023F9032000F03AF9CB
:102910006420FEF73FFBFE2000F0E4F868B1FE20E3
:1029200000F0E0F8FF2808D2002109A001F09AFF8A
:102930000A48FFF7F7FA012070BD002108A001F056
:1029400091FF002070BD00000C0C0140140000201D
:1029500070756C7365204F4B210D0A00341D0020EB
:1029600070756C7365204552524F52210D0A00005C
:1029700010B5002000F0B6F8154CC10919D000F0D0
:102980007DF82078022802D0032806D00CE010221F
:102990001049E06800F050F806E00E4A102302F1FA
:1029A0002001E06800F018F82078BDE8104000F041
:1029B000E9B88009C0070AD000F0AEF80023206112
:1029C000BDE810401A4619460120FFF76CBF10BD44
:1029D00014000020880700202DE9F0471F4690468C
:1029E00089460024104D1AE038F81400FDF790FED7
:1029F0000E49EE8841F8260039F81400FDF788FEEC
:102A00000B4941F82600761CB0B2E880E02804D3D8
:102A100000200849E88001200870641CE4B2BC4230
:102A2000E2D3BDE8F08700001400002088000020F9
:102A3000080400204C0000202DE9FE430024154628
:102A40000E468046671E10E036F8142009A168463D
:102A500000F024FF6846FDF7EDFB82B23B46694675
:102A60004046FFF7D0FC641CE4B2AC42ECD3BDE8B6
:102A7000FE830000733A25640A000000F0B593B0AD
:102A80004024214601A8FDF7B8FB0520134E851F01
:102A90008DF844000095012311AAAE21B068FEF71D
:102AA00053FD0095234601AAAE21B068FEF746FC0F
:102AB0000B4D002001AA05F1200611180B885FBA02
:102AC0008308001D25F813704988C0B249BA26F85A
:102AD0001310A042F1D313B0F0BD00001400002089
:102AE000880700203EB50B4D4FF0FF348DF80400F1
:102AF0000094012301AAAE21A868FEF725FD0094E9
:102B0000012302AAAE21A868FEF718FC9DF8080070
:102B10003EBD00001400002070B51620FFF7E2FF54
:102B200045B21720FFF7DEFFFDF708FE6FF0030246
:102B3000FDF7D7FD06460C462846FDF7EEFD32466A
:102B40002346FDF746FCBDE87040FDF72BBE0000B4
:102B5000044AD070917041EA0010C1B2092000F01F
:102B600059B800001400002010B504460720FFF7F4
:102B7000B9FF64F301000146BDE81040072000F0F2
:102B800049B8000070B5134D044628700620FFF7C1
:102B9000A9FF64F30200032C0ED020F008010620E8
:102BA00000F038F82878032809D04FF000030228F5
:102BB0001A4619460BD005E040F00801EFE7002364
:102BC0001A4601210020BDE87040FFF76CBE0120CD
:102BD000F9E700001400002010B504460720FFF7B5
:102BE00081FF64F384000146BDE81040072000F037
:102BF00011B80000064910B5002008700146FFF723
:102C0000A7FF0021BDE81040012000F003B800003C
:102C1000140000201CB502238DF804004FF0FF3093
:102C2000009004488DF8051001AAAE218068FEF7D7
:102C30008BFC1CBD140000203EB5002411480094FC
:102C4000019402940E4984600160047304750125A7
:102C500005614FF460214460C161FDF797FF08B141
:102C6000FDF714FF0720CDE90005694602940548E9
:102C7000FDF70EFF002801D0FDF708FF3EBD000064
:102C800000240140081C00201CB500240C490094BD
:102C90000A48019408600846FEF75BF808B1FDF7A2
:102CA000F5FE00940022694605480194FEF72AF8D3
:102CB000002801D0FDF7EAFE1CBD000000740040B2
:102CC000381C00202DE9F04F85B000243C480094CA
:102CD000019402940394816941F02001816181692A
:102CE00001F020010491816941F010018161816945
:102CF00001F010010491816941F004018161816951
:102D000001F004010491816941F008018161806949
:102D1000DFF8B08000F00800049000220121404656
:102D2000FEF746FADFF8A090002208214846FEF799
:102D30003FFADFF898A0002262215046FEF738FAE9
:102D4000DFF88CB04FF40057002239465846FEF7A2
:102D50002FFA0125022603960095CDE90154694614
:102D60004046FEF729F90820CDE90005CDE90246E5
:102D700069464846FEF720F96220CDE90005CDE915
:102D8000024669465046FEF717F94FF45040CDE928
:102D90000004694658460294FEF70EF90097039620
:102DA000CDE9015469465846FEF706F909484168DD
:102DB00041F0E06141F40041416005B0BDE8F08FB1
:102DC00000100240001401400010014000080140C2
:102DD000000C0140000001400D4810B50B49016096
:102DE0000C49416000214FF480428160C0E9031228
:102DF00041618161C1610162FEF7E6F9002803D0FB
:102E0000BDE81040FDF742BE10BD00000054004078
:102E10004C1C0020801A06000D4810B50B490160BB
:102E20000C49416000214FF480428160C0E90312E7
:102E300041618161C1610162FEF7C6F9002803D0DA
:102E4000BDE81040FDF722BE10BD00000058004054
:102E5000A01C0020A086010010B586B000241648F2
:102E6000009401940294039404944FF080410594DB
:102E70000160C821C0E901142821C0E9031484615C
:102E8000FFF705F808B1FDF701FE4FF48050009000
:102E900069460948FFF76CF808B1FDF7F7FD04949F
:102EA00004A905480594FEF7D1FF002801D0FDF7DD
:102EB000EDFD06B010BD0000F41C002010B586B07A
:102EC0000024174800940194029403940494134935
:102ED000059401604FF4C851C0E901144021C0E9D4
:102EE00003148461FEF7D3FF08B1FDF7CFFD4FF463
:102EF0008050009069460A48FFF73AF808B1FDF79C
:102F0000C5FD049404A906480594FEF79FFF002818
:102F100001D0FDF7BBFD06B010BD00000008004069
:102F2000341D00200C4810B50A4901604FF4E1310E
:102F30004160002181600C22C160C0E904128161FE
:102F4000C161FFF7C1F9002803D0BDE81040FDF7CB
:102F50009DBD10BD00380140741D00200C4810B507
:102F60000A4901604FF4E1314160002181600C2287
:102F7000C160C0E904128161C161FFF7A5F90028B1
:102F800003D0BDE81040FDF781BD10BD00440040F6
:102F9000B41D0020FEE7704770477047FEF7B6BBD0
:102FA00030B595B028216846FDF727F914210AA805
:102FB000FDF723F918210FA8FDF71FF902240120BE
:102FC000049000941020059000254FF46010CDE986
:102FD000085007946846FEF793FD0AA90F2081E880
:102FE00031006002CDE90D0502210AA8FEF79CFC24
:102FF000A00311900F940FA8FEF720FC15B030BD70
:103000000D48016841F00101016041680B4A11401F
:10301000416001680A4A11400160016821F4802181
:103020000160416821F4FE0141604FF41F0181609D
:103030000449C00308607047001002400000FFF818
:10304000FFFFF6FE08ED00E070B51F48FEF7FCFF3D
:103050001E481F4C002200682168435C1D48114631
:10306000007843431C48FDF7B5FE216840F6B835AB
:10307000491C0022194801232160A94203D9C178C3
:1030800009B92260C370164B21681B68994219D395
:1030900014490B6843F020030B602260C2700021CA
:1030A0000D48FDF7D2FE0848FEF74DFF0E48FEF72B
:1030B00039FF0E494020C1F800010D48016841F078
:1030C0002001016070BD0000F41C002010000020F1
:1030D0000C00002001000020381C00205C000020B3
:1030E000080000200C080140341D002004E000E02E
:1030F0000C44004010B51048FEF7A6FF0F49486980
:10310000401C4861B0F5FA6F0CD9BFF34F8F0C48E3
:1031100001680C4A01F4E06111430160BFF34F8F75
:1031200000BFFDE708480068C00403D4BDE81040B4
:10313000FFF71EBC10BD0000341D00205C00002005
:103140000CED00E00400FA05080C0140F0B502683F
:103150001C4B1D4D1D4E1E4F1E4C4FF0804C984277
:1031600009D0A04207D0604505D0A84203D0B042A4
:1031700001D0B84204D122F0700E4A6842EA0E0231
:10318000984209D0A04207D0604505D0A84203D09C
:10319000B04201D0B84203D122F44075CA682A4334
:1031A0004D6922F080022A4302608A68C2620A687E
:1031B0008262984201D0A04201D1096901630121D4
:1031C0004161F0BD002C01400004004000080040B7
:1031D000000C00400034014010B5846842EA03222C
:1031E00024F47F440A432243826010BD826822F0A7
:1031F00070020A4342F007018160704710B5036A0C
:10320000046A24F001040462846924F0F00444EAAE
:10321000021423F00A020A438461026210BD10B551
:10322000036A23F0100303628369046A23F4704382
:1032300043EA023224F0A00343EA011182610162F1
:1032400010BD10B5406A0021C185C184FEF7B3FFEF
:1032500010BD0168CA6822F49072CA6001684A69A8
:1032600022F001024A61202180F83A10704710B51F
:1032700090F83A10222901D0022010BD8168B1F5E2
:10328000805F11D00169002901681FD0496801F0F1
:103290007F03816A4A1C82620B70C18D491E09043A
:1032A000090CC18518D02BE00269816A002A0268E6
:1032B000526805D0D2B20A80816A491C8162ECE76B
:1032C000C2F308020A80816A891CF7E74A68816AAA
:1032D0004B1C83620A70E0E70168CA6822F0200292
:1032E000CA600168CA6822F48072CA6001684A69CB
:1032F00022F001024A61202180F83A10FFF782F89B
:10330000002010BD2DE9F041044600680169E26823
:1033100021F44051114301612169A06808436169AA
:1033200008432168CA6841F20C639A430243CA60A9
:1033300020684169A26921F44071114341611E492D
:10334000206864253226884202D1FEF793FB01E013
:10335000FEF780FB00EBC00101EB001160686FF02D
:1033600018078000B1FBF0F2B2FBF5F2B1FBF0F30D
:103370007A4303EB8202B1FBF0F306EB0212B2FBDD
:10338000F5F2B3FBF5F302F0F00202EB0312B1FB2E
:10339000F0F3B1FBF0F0B0FBF5F0784303EB800005
:1033A00006EB0010B0FBF5F0216800F00F001044B0
:1033B0008860BDE8F08100000038014090F83910C5
:1033C000212901D0022070478168B1F5805F016A30
:1033D0000BD04A1C0262026809785160C18C491EF8
:1033E0000904090CC1840ED017E009880268C1F3F2
:1033F0000801516001690029016A02D0491C01627B
:10340000ECE7891CFBE70168CA6822F08002CA6009
:103410000068C16841F04001C160002070472DE99B
:10342000F041984617460E460446069D1DE0681C6E
:103430001BD02DB1FDF7C2FEA0EB0800A84214D9A5
:103440002068C16821F4D071C1602068416921F011
:1034500001014161202084F8390084F83A000020FD
:1034600084F838000320BDE8F0812068006836EA5F
:10347000000004D00020B842D9D00020F3E701209A
:10348000F9E700000148FEF797BE0000741D002018
:103490002DE9FC419648FEF78FFE95480068C1680B
:1034A00041F02001C16093480068800635D59148FD
:1034B000001D0068904CC1B2904E21700D2901D0C2
:1034C0000A2901D1A08818B1A0883154401CA080DD
:1034D00080B2811E002539297CD2311811F8022CC6
:1034E0000D2A03D111F8011C0A2918D021898A0656
:1034F00013D5022811D130783E280ED170782028BB
:103500000BD1A58000203554401C80B23C28FAD352
:1035100021F0200040F010002081BDE8FC817849B6
:103520000D80355477A17548FCF772FE58B977A124
:103530007248FCF76DFE30B976A17048FCF768FE62
:1035400008B9A0883554A58075A16C48FCF760FEC9
:1035500028B12089810702D520F002006AE072A11B
:103560006648FCF755FE38B1208940F00400208100
:10357000E08840F0040029E06EA16048FCF748FEB6
:1035800028B101215D4801F06DF9A5809AE06BA199
:103590005A48FCF73DFE022740B1208920F0040084
:1035A0002081A0798007F1D4E7808BE067A15348A0
:1035B000FCF72EFE78B1012166A001F053F92089B5
:1035C00040F008002081E08840F02000E080657035
:1035D000A57077E07DE067A14848FCF719FE48B97F
:1035E00066A14648FCF714FE20B966A14348FCF7E3
:1035F0000FFE78B1012168A001F034F9208920F094
:1036000008002081E08840F00800E080FDF7D6FD4A
:10361000206157E069A13948FCF7FAFD10B101219A
:1036200069A04DE072A13548FCF7F2FD28B10121F7
:1036300072A009E040F0010013E07AA12F48FCF7E6
:10364000E7FD30B101217AA001F00CF9E780208973
:10365000F0E77FA12948FCF7DBFD20B1208940F08D
:10366000400020812EE07CA12448FCF7D1FD48B326
:1036700000950020694601953218D2790A54401C01
:10368000C0B20728F8D3BDF805700521684601F0DF
:103690009BF8B84216D1208940F0800020819DF827
:1036A00004009DF8031041EA00209DF8021041EA51
:1036B00000209DF8011041EA0020E060012168A08F
:1036C00001F0D0F800203554401C80B23C28FAD3D9
:1036D00023E73C28FCD300203554401C80B23C2812
:1036E000FAD3A580BDE8FC4101210EA001F0BAB8D3
:1036F000B41D0020004400405C000020F41D0020A8
:103700004E000020526563762000000053454E4471
:10371000204F4B006275737920702E2E2E00000012
:103720004F4B0D0A000000005749464920474F54AF
:10373000204950002B43574C41503A0057494649C5
:1037400020444953434F4E4E45435400636F6E5FD0
:103750006F6B00004372656174696E67205443505B
:1037600020746F2074686520736572766572204FCF
:103770004B0D0A00434C4F5345440000434F534503
:10378000440000006C696E6B206973206E6F7420BA
:1037900076616C69640000004372656174696E67EC
:1037A0002054435020746F207468652073657276CE
:1037B0006572204552524F520D0A00002B43574A62
:1037C00041503A3200000000496E76616C69642015
:1037D00070617373776F726421205265626F6F74CA
:1037E000206465766963652E2E2E0D0A00000000A8
:1037F0002B43574A41503A3300000000506F696E26
:103800007420646F6573206E6F74206578697374BB
:1038100021205265636F6E6E6563742E2E2E0D0A25
:10382000000000002B43574A41503A31000000008D
:1038300054696D656F7574206572726F72212052C4
:1038400065636F6E6E6563742E2E2E0D0A00000088
:10385000745F6F6B0D0A00002B4950442C37000039
:10386000526563697665206E657720636F6D6D6163
:103870006E640D0A00000000FEE700000FB4054B67
:1038800010B503A9044A029800F010F910BC5DF8C5
:1038900014FB0000D1480008580000200FB4084B6A
:1038A00010B504A902AA039800F000F9044602A981
:1038B000002000F07EFC204610BC5DF814FB0000E8
:1038C000B3410008002809DB00F01F0201219140EC
:1038D0004009800000F1E020C0F80011704709079E
:1038E000090E002804DB00F1E02080F80014704786
:1038F00000F00F0000F1E02080F8141D704702E096
:1039000008C8121F08C1002AFAD17047704700206A
:1039100001E001C1121F002AFBD170470149086074
:1039200070470000840000202DE9FF5F82B0002175
:10393000DDE90430020DDDF840B0034318D044F651
:103940001050A2F2FF3242431514119801281FD0E3
:10395000A5EB0B00401C5FEA000A4FF000064E4F3B
:10396000DFF83891B046504615D5CAF1000413E08F
:10397000119801244AA3012801D16FEA0B01029892
:10398000119AC0E90031C0E9024206B0BDE8F09FDB
:10399000CBF10000DFE704460021404A491842EB22
:1039A0000450CDE9001012E0E00707D032463B4654
:1039B00040464946FCF7B4FD8046894632463B46C0
:1039C00010461946FCF7ACFD06460F466410002C65
:1039D000EAD1DDE90401DDE90023BAF1000F06DADE
:1039E000FCF79EFD42464B46FCF79AFD05E0FCF7CE
:1039F00009FE42464B46FCF705FE04460E460022F1
:103A0000284BFCF7F1FF03D84FF0FF30014607E0E9
:103A10000022254B20463146FCF7DBFCFCF7CBFFB0
:103A2000102409E0002C0ADB0A220023FCF77CFBAF
:103A3000039B30321A55641E50EA0102F2D1641C15
:103A4000039AC4F111031444119A012A03D00122EC
:103A500008430DD10AE0084304D000204FF0110BB9
:103A6000119072E7A3EB0B056D1E0DE05B4504DDC5
:103A70004FF0000205F1010504E003DA4FF0000207
:103A8000A5F10105002AECD002981199C0E9023194
:103A9000C0E9004579E70000000014400000F03F55
:103AA000300000000000F0430000E03F2DE9FF4F30
:103AB00095B09A46884606460025EEE1252877D13E
:103AC00000242746F94A0121039400E0044316F834
:103AD000013F203B01FA03F01042F7D130782A2849
:103AE00011D06FF02F033078A0F13002092A16D8D8
:103AF000039A44F0020402EB820203EB42021044F8
:103B0000761C0390EFE758F8042B0392002A03DA9F
:103B1000504244F40054039044F00204761C307880
:103B20002E2816D116F8010F44F004042A280DD0CF
:103B30006FF02F023078A0F13003092B09D807EB82
:103B4000870302EB4303C718761CF3E758F8047B9E
:103B5000761C30786C280FD006DC4C2817D06828EB
:103B60000DD06A2814D104E0742810D07A280FD11F
:103B70000DE044F400140AE044F4801401E044F43D
:103B800040147278824202D104F58014761C761CAF
:103B9000307866280BD013DC582877D009DC002851
:103BA00075D04528F6D04628F4D047281AD193E19D
:103BB00018E0632835D0642879D0652812D18BE1CC
:103BC000702873D008DC6728F1D069286FD06E2880
:103BD0000DD06F2806D1ACE073282CD0752874D096
:103BE000782853D05246179990476D1C54E1C4F37E
:103BF0000250022809D003280DD0D8F8001004285C
:103C00000DD00D6008F1040846E1D8F80010EA175D
:103C1000C1E90052F6E7D8F800100D80F2E70D7008
:103C2000F0E718F8041B8DF8001000208DF8010053
:103C3000EB46012003E058F804BB4FF0FF3061076A
:103C40004FF0000102D40DE009F101018946B942AB
:103C50000FDA8145F8DB1BF809100029F4D108E0E0
:103C600009F1010189468142FADB1BF8091000299C
:103C7000F6D103985346A0EB090721463846179A18
:103C800000F080FA284400EB090507E044E008E171
:103C90000DE01BF8010B524617999047B9F1010945
:103CA000F7D2534621463846179AF2E039E00A2106
:103CB000C4F302524FF0000B0091022A06D058F8CC
:103CC000040BC117032A09D00AE023E008F107001A
:103CD00020F00702F2E80201904605E000B2C117A9
:103CE000042A01D140B2C117002906DA0A46002190
:103CF000404261EB02012D2202E0220504D52B2275
:103D00008DF80420012203E0E20701D02022F7E72A
:103D1000914657E00A2100E010214FF0000B00917E
:103D20000BE010214FF0000B44F004040827009131
:103D300003E008204FF0000B0090C4F30252022A67
:103D400005D058F8040B0021032A08D008E008F138
:103D5000070020F00702F2E80201904603E080B27B
:103D6000042A00D1C0B24FF0000922072AD53278C8
:103D7000702A07D0DDF800C08CF0100C5CEA0B0C48
:103D800005D00EE040228DF80420012208E050EA20
:103D9000010306D030238DF804308DF8052002226F
:103DA0009146009B83F0080353EA0B030AD150EAC3
:103DB000010201D1620705D530228DF804204FF0B1
:103DC00001097F1E3278582A04D039A20C920CAA1D
:103DD00002920BE03BA2F9E75B46009AFCF7A4F9DC
:103DE0000C9B9B5C029A521E0292137050EA0102D5
:103DF000F2D1029804A9081A00F1200B600702D53D
:103E000024F4803400E001275F4502DDA7EB0B00BE
:103E100000E0002000EB0B01009003984944401A99
:103E20000390E00306D453462146179A039800F006
:103E3000A9F90544002706E001A85246C05D17997C
:103E400090476D1C7F1C4F45F6DBE0030CD55346B5
:103E50002146179A039800F095F9054404E03020B4
:103E60005246179990476D1C0099481E00900029F2
:103E7000F5DC08E00298029952460078491C02914C
:103E8000179990476D1CBBF10001ABF1010BF1DC00
:103E90005BE100F065F90544761C307800287FF47A
:103EA0000DAE19B02846BDE8F08F000009280100CA
:103EB00030313233343536373839616263646566A0
:103EC0000000000030313233343536373839414262
:103ED0004344454600000000600700D4062708F16F
:103EE000070020F00700F0E80223804603F0004CB2
:103EF0005FEA0C0001D097A009E0200501D596A04B
:103F000005E0E00701D095A001E0AFF24C0013906E
:103F1000307823F0004365280CD006DC452809D012
:103F200046281DD047287FD13BE0662818D0672857
:103F30007AD136E00021112F01DB112000E0781C3E
:103F4000CDE9000104A90CA8FFF7EEFCDDE90D01A5
:103F50000C9A4FF0000B07F10109109200914EE00E
:103F60004FF000400097CDE9011004A90CA8FFF71D
:103F7000DBFCDDE90D020C9B0F994FF0000B914625
:103F80001093009211B9791C00EB0109B7EB0900FD
:103F900003D4C0F1FF3B07F10109A9EB0700019031
:103FA00042E0012F00DA01270021112F01DD11204D
:103FB00000E03846CDE9000104A90CA8FFF7B4FCE5
:103FC000DDE90D010C9A00914FF0000BB9461092FB
:103FD00021070FD4009A4A4503DA914601E0A9F17E
:103FE0000109B9F1010F05DD109AA9F10101515C38
:103FF0003029F4D0B84202DA10F1040F03DA0121BB
:10400000CDE9011010E0002803DC8344A9EB000196
:1040100002E0411C494500DD8946A0EB0B00401C35
:1040200001904FF000400290200705D401984845C8
:1040300002DB4FF0FF30019000208DF84B0002981A
:104040000DF14B07B0F1004F25D002200C902B2032
:104050000D90029800280CDA404202902D200D901D
:1040600007E00A210298FCF7CDFB3031029007F8F7
:10407000011D0C99481E0C900029F2DC02980028C2
:10408000EFD1791E0D980870307800F0200040F0D4
:10409000450007F8020D11A8C01BC01D029013981F
:1040A000007800B1012000EB0901019801EBE071FB
:1040B000029801440398401A401E0390E00306D47E
:1040C00053462146179A039800F05CF8054413986C
:1040D000007818B15246179990476D1CE00323D51C
:1040E00053462146179A039800F04CF805441BE00C
:1040F000BBF1000F07DB0098584504DD10981799B5
:1041000010F80B0001E017993020524690470198B3
:104110000BF1010B401E05F10105019004D12E2089
:104120005246179990476D1CB9F10001A9F1010998
:10413000DEDC05E017F8010B5246179990476D1C1D
:104140000299481E02900029F4DC53462146179A32
:1041500003989EE62D0000002B00000020000000C8
:104160002DE9F041044600251E461746880404D474
:1041700005E039462020B0476D1C641EF9D528465D
:10418000BDE8F0812DE9F041044600251E46904629
:10419000C80301D5302700E02027880404D505E0B6
:1041A00041463846B0476D1C641EF9D52846BDE827
:1041B000F0810A68531C0B60107070472DE9FF4FA7
:1041C00087B0D0E9016590F800B0DDF824800C4696
:1041D00001CD069001CD059055F8080B049055F8D7
:1041E000040C039001CD0290D6E900A90A9F2AE0B1
:1041F00001CC009001460698FCF77BF85146FCF78D
:1042000020F8019000990598FCF773F84946FCF7EF
:1042100018F8814601990398FCF76BF84946FCF7BA
:1042200010F8824600990498FCF763F88146DDE9AE
:104230000110FCF75EF84946FCF703F88146019847
:1042400048F8040B7F1E002FD2D1E6E802A9099C92
:10425000ABF10100A0465FEA000BB9D10BB0BDE89D
:10426000F08F70B50170044682601D46C900184683
:10427000FBF7C3FF656070BD2DE9FF4F81B06FF0A4
:10428000030101989B46D0E9014000900198B0F8E5
:1042900000A001EB8A0004EB000922E002984FF035
:1042A00000082746016849F8041B02985546001D7E
:1042B0000290009E0AE031683868FCF71AF841461F
:1042C000FBF7BFFF6D1E361D80463F1D002DF2D14E
:1042D0000399ABF1010BC1F800800398001D241D68
:1042E0000390BBF1000FD9D101984168AAF10100F8
:1042F00002E004CC401E04C10028FAD105B0BDE89C
:10430000F08F70B5044604982180084481001D4652
:104310001846091FA260FBF770FF656070BD2DE9AC
:10432000F041904605460E4600270C4606E038460A
:104330002968FBF786FF641E07462D1D002CF6D169
:104340003046FCF7E5F901463846FCF704F8C8F8B2
:104350000000BDE8F0812DE9F05F40C800279B46D2
:104360009246884604464D1E0AE054F8049B3046A7
:104370004946FCF73DFA02D24E46A8EB05076D1EF2
:10438000002DF2D1CAF80060CBF80070BDE8F09FB4
:104390002DE9F04117460646884600250C4608E000
:1043A00001CE0146FBF7A5FF2946FBF74AFF05466C
:1043B000641E002CF4D14046FCF7AAF901462846B9
:1043C000FBF7C9FF10F1FF4F02D200F0DDFF00E064
:1043D00000203860BDE8F0812DE9F0411A4C064616
:1043E0001A4888B0A588A58088460068FCF7B3F90C
:1043F000E08007461C216846FBF7FFFEAA208DF8E7
:1044000000003068CDF801007068CDF80500B06894
:10441000CDF80900CDF80D8020788DF81100608866
:10442000ADF81200ADF81450ADF8167017216846BB
:1044300000F0CAF9ADF818001A21684600F072FEC3
:1044400008B0BDE8F081000000000020500000200E
:1044500070B506461D480024C2B00D4604702146C2
:104460001BA000F0FFF9224804602248018821F0D7
:104470000B0101804FF4807101A8FBF7BEFE3346AB
:104480001DA222A101A80095FFF708FA6420FCF7FD
:1044900081FD21A000F038FE4FF49670FCF77AFD04
:1044A00001A800F031FE2049088820F008021F48CA
:1044B0000A8003785B1CDBB203700A2B03D90470FB
:1044C00042F00200088042B070BD0000540000209D
:1044D0004372656174696E67206120544350207493
:1044E0006F20746865207365727665720D0A00002E
:1044F0006C0000206400002041542B434950535469
:104500004152543D22544350222C00002573222551
:1045100073222C25730D0A0041542B434950434C00
:104520004F53450D0A000000620000205E0000208D
:104530002DE9F04100286FD0544A554E554C108853
:104540004FF0000541070CD501070AD43178491C0A
:10455000C9B231700F2905D9218841F008012180A5
:1045600000E0357021884FF49677CB0705D000BF67
:1045700000F020FF0028FBD074E08B0704D546A193
:1045800048A000F0C3F86DE04B072AD520F00100E9
:1045900040F002001080154646A000F0B5FD002650
:1045A0000EE00520FCF7F6FC761CF6B2C82E07D903
:1045B0000026314641A000F055F93EA000F0A4FDD0
:1045C0002878C007EDD0002140A000F04BF92888E2
:1045D00020F001002880208820F0040040F008002E
:1045E0003FE00B070FD5FCF7E9FD3C490968401A8D
:1045F00040F6B831884201D8307868BB38A13AA07B
:10460000FFF726FF2EE0030727D58B0605D521F0FF
:104610002000208000201DE036E0010611D520F0AA
:10462000800010803846FCF7B5FC062132A000F06F
:1046300079FD062130A000F075FD06212EA000F0C6
:1046400071FD2F480178491CC9B201700A2909D9A6
:104650000570012000F0C6FD04E0084302D141F0DE
:104660000200208027480168CA0708D021F0010114
:104670000160142243F6B741234800F043FC38465A
:10468000BDE8F041FCF786BCBDE8F0816400002085
:104690005E0000206200002034343232777771717E
:1046A00000000000486F6E6F723839393038393683
:1046B0003738390041540D0A0000000077696669F7
:1046C0005F627573793D280D0A0000004950206132
:1046D0006464726573204F4B210D0A006C0000204A
:1046E00037373730000000003139322E3136382E5E
:1046F00034332E31303900004F4B5F434F4D0000B3
:1047000054000020680000204455000830B50C46D5
:104710001B490546C1B0002008601A48018821F0F5
:104720000F0101804FF4807101A8FBF766FD2B4655
:1047300015A218A101A80094FFF7B0F819A000F085
:10474000B9FD6420FCF726FC01A800F0DDFC002187
:1047500001A800F087F8002115A000F083F81848A0
:10476000184A018821F00201018013785B1CDBB23A
:104770001370032B02D941F00101018041B030BD1B
:104780006C0000206400002041542B43574A4150E4
:104790003D0000002573222573222C222573220D53
:1047A0000A00000041542B43575141500D0A0000AC
:1047B000436F6E6E65637420574946490D0A0000C9
:1047C000620000205D00002030B503464FF6FF7008
:1047D00041F2210410E000BF13F8012B80EA02200F
:1047E0000022050402D584EA400000E04000521C8B
:1047F000D2B280B2082AF4D3491E89B2ECD230BDBD
:104800002DE9F0470024994692460E460546274674
:10481000DDF8208021E000BF55F824005146FBF769
:10482000DDFF04D255F82400B0F5000F0ADA55F880
:1048300024004946FBF7DCFF06D255F8240010F1AE
:10484000FF4F01D345F82470A6F13800844203D30A
:1048500055F8241048F82410641CB442DCD3BDE899
:10486000F087000010B5044641B1FBF7E3FC214698
:1048700082B2BDE810400648FDF722BEFBF7DAFC25
:10488000214682B2BDE8104064230148FDF7BBBD5C
:10489000741D00202DE9F0478846994617460546C5
:1048A0000024089910E000BF55F82400FBF71BFD19
:1048B00006464846FBF72CFF3146FBF71AFD48F841
:1048C000240055F82410641CBC42EDD3BDE8F087E9
:1048D00005490968C90105D54FF060410A68002AF9
:1048E000FCD0087070470000FCED00E038B51E4BAE
:1048F0001E4A0221A3F13C00FFF7B3FC1A4B1B4AEE
:10490000103328320221A3F14000FFF7AAFC184817
:10491000154B164A00686033009078321821A3F1D5
:104920008400FFF7EEFC104B104A30330221A3F154
:104930004800FFF796FC0C4B0C4A4033283202210A
:10494000A3F14C00FFF78DFC074B00200221B43B84
:10495000084C03F13C0200BF43F8201042F820400D
:10496000401C0F28F8D338BDCC0900200C92000859
:10497000280000200000C6422DE9F04F85B0002538
:10498000C24C894602950395064602AA2168FFF7A4
:10499000C6FC03AA48462168FFF7C1FCBC4803993E
:1049A000DFF8F0A2BC4F81427EDD02998142FBDD3F
:1049B000BA4A04953146A2F254402368FFF7FEFB41
:1049C000DFF8DC82D4E900134246B44800F024FB4F
:1049D000B249B44AA1F589602368FFF7EFFBB14DF6
:1049E000B14A23680020191805EB810151F8341CE5
:1049F00042F82010401C0C28F5D3AB49581E6039F2
:104A0000AB460BE00C2802DA51F8206003E005EB1E
:104A1000800656F8306C4BF82060401E0028F1DC10
:104A20005FF0000052F8205041F82050401C0C2844
:104A3000F8D39A4A4946A2F58F60FFF7BFFB42467A
:104A40009648E368216800F0E7FA9449974AA1F292
:104A50006C402368FFF7B2FB04AA94482168FFF773
:104A600097FC914E0020914D22683036111805EBCD
:104A7000810151F8341C46F82010401C0C28F5D355
:104A8000A0680090012385498848FFF703FF834908
:104A9000874AA1F58C602368FFF7EEFBDFF810C2B0
:104AA0000020ACF51C6100E0ECE0226813180CEB70
:104AB000830353F8343C41F82030401C0C28F5D3D4
:104AC0007949501E30390BE00C2802DA51F82030B9
:104AD00003E005EB800353F8303C45F82030401EDE
:104AE0000028F1DC5FF0000056F8203041F820305B
:104AF000401C0C28F8D36C4BA846903B67496C4887
:104B0000009500F01BFC6B490498FBF724FC02465F
:104B10000096002361482168FFF772FE624D00266F
:104B20000E20C03505EB800151F8041C45F820101B
:104B3000401EF7D15C49A14660315848236922687C
:104B400000F016FA2860584B0090903353495748AC
:104B5000226800F0B3F9002455F82400FBF7D8FDD3
:104B60003146FBF76EFB641C06460F2CF4D352490A
:104B7000FBF7F1FB00904C489030A0F13002066842
:104B8000156858F8261058F8250021F0004120F04B
:104B90000040FBF756FBC9F8140004465BF82610EA
:104BA0005BF82500C84621F0004120F00040FBF7EB
:104BB00048FBC8F81800054620460299FBF799FB08
:104BC000044628460399FBF794FB2146FBF7C3FBF9
:104BD0000546354C0E20FC3404EB800151F8041CD2
:104BE00044F82010401EF7D134492846FBF781FBDA
:104BF0003349FBF77BFB0026C4F8000054F826106D
:104C00002846FBF71EFB761C05460F2EF6D32A49D5
:104C1000FBF7A1FB0646C8F820004446D8F8000080
:104C2000FBF776FD054627490098FBF762FB26490E
:104C3000FBF75FFB2946FBF78EFB8046E0613046C1
:104C4000FBF79DFD05460E464046FBF798FDCDE976
:104C5000005602460B461DA0FEF710FEE169CAF899
:104C600000102349206A884201DA602006E02149C9
:104C7000884201DD632001E0FBF76DFD387005B06F
:104C8000BDE8F08FCAF800503D70F8E7280000201A
:104C900000409C465000002000000020080E00202C
:104CA0000000204188180020580800200815002026
:104CB0008811002000004040000070410000884141
:104CC0000000D042000070420000C8426865617276
:104CD00074207261746520697320252E35662C203E
:104CE00053704F3220697320252E35660D0A00005F
:104CF0000000C0420000C642214810B5016841F0E2
:104D000020010160016821F040010160C820FCF72A
:104D100041F91C48C16821F00801C160C820FCF7B6
:104D200039F9002413E0641CE4B20A2C0CD9BFF357
:104D30004F8F15480168154A01F4E0611143016085
:104D4000BFF34F8F00BFFDE7C820FCF723F900F049
:104D50008BF90028E7D102E0C820FCF71BF90C49C9
:104D60000C48FDF7B1FD0028F6D000F0B9FB252076
:104D7000FEF7A8FD0848016841F02001016010BD60
:104D80000C080140001001400CED00E00400FA05A1
:104D9000741D0020A01C00200C3801409CB0FCF7C2
:104DA000BDFCFEF7FDF8FDF78DFFFDF76DFFFEF78B
:104DB000B9F8FEF7D3F8FEF781F8FEF74DF8FEF7E5
:104DC0000BF8FEF729F8FDF737FF002243F6B7414D
:104DD000254800F097F84FF47A70FCF7DBF8FFF7FE
:104DE00085FDFFF789FF002120A0FFF73BFD64212F
:104DF00002A8FBF702FA214C0025207828B3204EA8
:104E0000306840F0010030601E491F48FFF7B4FDD4
:104E100025706068FBF79FFC87B200F0C1F8FBF7D4
:104E2000AEFC1A4A0B461AA11278CDE9007202466E
:104E300002A8FEF733FD1E480021056002A8FFF717
:104E400011FD306820F0010030606088401C80B2A5
:104E500060801E2804D317486580058016480580A9
:104E60000120FFF765FBC8E7E49200085374617204
:104E7000742073797374656D0D0A00004C00002076
:104E80000C140140880000200804002000000020CD
:104E900054656D703A20252E31660950756C733A51
:104EA0002025640953704F323D25640D0A0000002F
:104EB0007000002064000020620000202DE9FC4703
:104EC000814600200A9D1F461646884600900446EB
:104ED000019012E004FB06F0B0FBF5F2B6FBF5F131
:104EE00009EB820001AB6A46FFF735FA009948F8F2
:104EF0002410019847F82400641CAC42EAD3BDE8B2
:104F0000FC870000144B10B518610020C3E90210A3
:104F100012495A704020C1F88001BFF34F8FBFF390
:104F20006F8F0F48FDF70FF800231A4619460D48FA
:104F3000FBF750FF00210B48FBF759FF0A480168B7
:104F400021F0200101600A20FCF724F8BDE81040A0
:104F50000648FCF7E7BF00000000002004E000E086
:104F6000341D0020381C00200C080140F41C0020D7
:104F7000F0B50546002004464FF400060DE000BFE2
:104F800055F82470B74205DB13F0FF4F02D141F80A
:104F90002040401C55F82430641C9442F0D3F0BDEE
:104FA0003EB5E3208DF8040042F21074012301AAFB
:104FB000802113480094FCF7C7FA124D38B9022338
:104FC00002AA80210E480094FCF7B8F908B12846DF
:104FD0003EBDBDF8080040BAFBF7B0FB0A4A0B4BD8
:104FE000FBF79EFA6FF00F02FBF77BFB084A094BB9
:104FF000FBF790FA03B0BDE83040FBF7D3BB0000ED
:105000004C1C0020000080BFD7A3703D0AF765400C
:10501000CDCCCCCCCC6C47402DE9F047984691469E
:105020000F46054600241BE055F824004146FBF7D7
:105030005AF9064620F000404946FBF7D9FB02D357
:1050400055F824000AE0002E4946404602DAFBF7F4
:105050004AF901E0FBF7F5F845F824008046641CA6
:10506000BC42E1D3BDE8F0877CB5194DFE208DF838
:105070000400286880F001002860164CE06820F0E9
:105080000800E060C820FBF785FFE06840F00800FA
:10509000E060C820FBF77EFF4FF47A700090012398
:1050A00001AA80210C48FCF74FFA4FF0000128B10B
:1050B0000AA0FFF7D7FB4FF0FF307CBD0DA0FFF734
:1050C000D1FB286820F00100286000207CBD000092
:1050D0000C140140001001404C1C002074656D70E0
:1050E00065726174757265204552524F52210D0AE6
:1050F0000000000074656D706572617475726520E2
:105100004F4B210D0A00000010B50446FBF792F842
:10511000214682B2BDE8104064230148FDF773B90F
:10512000B41D00202DE9F041254C80460E46208814
:105130008AB001073DD520F0100040F0200020800B
:10514000002528216846FBF758F833461DA220A108
:105150006846FEF7A3FB6846FFF7D6FF4FF4FA77E1
:1051600005E06D1CBD4205D20A20FBF713FF207835
:10517000C006F6D50020024669460A54401CC0B25B
:105180002828FAD3002004E018F800200A54401C14
:10519000C0B2B042F8D3BD420ED82088642320F0BC
:1051A000100020801A220C48FDF72DF90A20FBF789
:1051B000F1FE0AB0BDE8F08108A0FFF7A5FFF8E70F
:1051C0006400002041542B43495053454E443D0058
:1051D000257325640D0A0000B41D00202B2B2B0D18
:1051E0000A0000002DE9F04106462C48A0B0002539
:1051F0000068019029482C46001D0068029027484D
:1052000008300068CDF80C00FFF7CAFE2946FBF70E
:1052100018F8641CE4B20546052CF5D32049FBF7C9
:105220009AF88046642104A8FAF7E7FF1D4D00278D
:105230000024288820F0400028801EB14046FBF75B
:105240009EFA01E000201849FBF7ACFA014601A8DC
:10525000FFF7C2F806E0641CE4B21E2C06D86420F6
:10526000FBF798FE28784006F5D502E0287840063E
:1052700009D528880D4920F04000288000200870BA
:1052800020B0BDE8F0817F1CFFB2032FD0D30848C7
:10529000018841F008010180F2E70000E8F7FF1FF4
:1052A0000000A0406400002000005940540000208D
:1052B0006200002070B51A4C06460025208820F0B8
:1052C000010040F0020020803046FAF7B3FF82B2BE
:1052D000642331461348FDF796F800213046FFF766
:1052E000C1FA4FF4FA7605E06D1CB54211D20120E7
:1052F000FBF750FE20788007F6D4B54209D220880B
:10530000002120F00100208007A0FFF7ABFA012068
:1053100070BD002106A0FFF7A5FA002070BD0000B7
:1053200064000020B41D00204F4B210D0A00000036
:105330004552524F52210D0A00000000F0B50024E2
:10534000104E4FF4000C2546059F18E050F824E05D
:105350000C2C04D2B6450FD353F824E005E0B64533
:105360000AD300EB840E5EF830ECE64504DB57F818
:1053700024E041F824E001E041F82450641C944208
:10538000E4D3F0BD0000808070B50546FBF787FAD6
:10539000044620F00040C0F1FF40C00F08D025F0C7
:1053A0000040C0F1FF40C00F04BF0120FEF7B6FA75
:1053B000204670BD7FB52C4800212D4C01702B4834
:1053C00001701DCC8DE81D002A482B4A018008463B
:1053D0001154401C80B23C28FAD3284C206820F09D
:1053E00040002060C820FBF7D5FD206840F0400059
:1053F00020604FF4C870FBF7CDFD206820F002005C
:1054000020604FF496752846FBF7C4FD206840F0F5
:10541000020020602846FBF7BDFD002118A0FFF721
:1054200021FA00246E46002506E06D1CEDB2052D24
:1054300002D9002004B070BD56F82400FFF73AFFEF
:105440000028F2D0641CE4B2042CECD3002118A094
:10545000FFF708FA2148018821F0010141F002011B
:1054600001800120E6E700005D0000205E000020D2
:10547000FC91000860000020F41D00200C08014091
:1054800057494649207365747570202D2053544147
:1054900052540D0A2A2A2A2A2A2A2A2A2A2A2A2A57
:1054A0002A2A2A2A2A2A2A2A2A2A2A0D0A00000017
:1054B0002A2A2A2A2A2A2A2A2A2A2A2A2A2A2A2A4C
:1054C0002A2A2A2A2A2A2A0D0A5749464920736578
:1054D000747570202D20454E440D0A006200002096
:1054E00070B5164C206820F040002060C820FBF703
:1054F00051FD206820F0020020604FF49675284688
:10550000FBF748FD2620FEF7DDF90D49086840F05D
:1055100020000860C820FBF73DFD206840F04000F7
:1055200020604FF4C870FBF735FD206840F00200A2
:1055300020602846BDE87040FBF72CBD0C080140F8
:105540000C440040807F7F7E7F80807F80818181CE
:10555000828382828384838282818081807F807F34
:10556000807F7F7F7F7F7F7E7F7F7F7F7E7F7E7F4D
:105570007E7F7E7F7F7F7F7E7F7E7F7E7E7F7E7E43
:105580007F7E7F7E7E7F7E7F7E7D7E7E7F7F808131
:1055900082828383848586858685848484838382CE
:1055A00082818080808080807F807F807F7E7F7E00
:1055B0007F7E7E7D7E7D7E7D7D7E7D7D7D7C7D7C16
:1055C0007D7D7C7D7C7D7C7D7D7C7C7C7C7C7C7B16
:1055D0007C7D7F8080818283848586878888878799
:1055E0008686868685858484838282828281818084
:1055F0007F807F807F7E7E7E7E7D7D7D7C7D7C7CCE
:105600007B7C7B7B7B7B7B7B7A7B7A7B7A7B7B7AED
:105610007A7A7A7A797A7A7B7C7E7F8080818384B9
:1056200086878888898889898988898888878786FC
:1056300086858484838382818180807F807F7F7E52
:105640007E7E7C7D7C7B7C7B7B7B7A7B7A7A7A79A5
:105650007A79797979797978797879787978797ABC
:105660007C7E7F7F80818284868788888988898AFA
:10567000898A8989898887878686858484838281C7
:105680008180807F7F7F7E7E7D7D7C7C7B7B7B7A43
:105690007A7A7A797A797979797979797978797977
:1056A0007879787978797A7C7E7E7F808183848628
:1056B000878888898A8A8B8A8A8A8989888887865E
:1056C000868584838282818080807F7F7E7E7D7CD0
:1056D0007C7C7B7B7B7B7B7A7A7A7A797979797926
:1056E0007979797978787979787878797B7D7E7F1E
:1056F00080818385868888898A8A8B8A8A8A898933
:10570000888786868584848381818080807F7F7F6F
:105710007E7E7D7D7C7C7C7B7C7B7B7A7A7B7A79D0
:105720007A7A797979797979797978797978797AE8
:105730007D7F808082848688898A8B8C8C8C8C8B00
:105740008A898987878584848282818080807F7E20
:105750007E7E7D7D7C7C7C7B7C7A7B7A7A7A797993
:10576000797A7979797979787978787879787877B0
:10577000787B7D7F8080838688898A8B8C8D8C8CDA
:105780008B8A8988888685848482818180807F80D5
:105790007F7E7E7F7D7C7D7C7B7B7A7B7A7A79794C
:1057A0007979787978787877787878777677787B78
:1057B0007D7E7F818486888A8C8D8E8F8E8E8D8C67
:1057C0008A898886858483818180807F807F7F7EAF
:1057D0007D7E7C7C7C7B7A7A79797877787776772E
:1057E000767676767576757475777A7B7E80828527
:1057F000878A8C8E909191908F8E8D8B89888684EC
:105800008381807F807F7E7F7E7E7D7D7D7C7B7BB4
:105810007A79797877767675747474737473737231
:105820007375787A7D808286898C8F919394949316
:1058300092908E8B88868481807F7E7D7C7D7C7D2E
:105840007D7D7D7D7C7B7B7A7978777675747372CC
:1058500072717170717174777A7D8185898C909481
:1058600097999A999795928E8B8784817F7D7B7A81
:1058700079797A7A7B7C7D7C7D7C7C7B7A79777583
:10588000747271706F6E6E6D6F74777B7F858A8EA8
:1058900092979A9C9E9D9B98948F8A85817E7A7719
:1058A000757473747576787A7B7C7D7D7C7B7A7871
:1058B000777572716F6E6C6C6C7075787D82898E85
:1058C00092989C9FA2A2A09D98938D87817D7975C7
:1058D00072706F70727476797B7D7E7F7E7D7C7A4C
:1058E000787573706E6D6B6B7075797E848B909626
:1058F0009BA0A3A5A4A19C969088827C77726E6CD5
:105900006A6B6D6F7276797C7D7E7F7E7D7B797729
:1059100074716F6D6B6E74777C828B90969CA1A472
:10592000A5A6A39D968F877F78726E696767676962
:105930006C7175797C7F8080807F7C7A7774716EE2
:105940006C6B74767B838B93979FA4A7A7A9A59D67
:10595000968C837A726B6763626365696D72777C1C
:105960007F818283817F7D7A76736F6D69717777AE
:10597000858A959AA2A9A9ABAAA99D988B80776CD4
:1059800067605E5D5F62676D72797E8285878684FF
:10599000817E7975716D6B6A7974818E8FA09EACF2
:1059A000AAAAABA89F948F7C7769635F5B5E5E64F5
:1059B0006870747B808386878684807D78746F6D41
:1059C0006A6E7D718C8E92A39DAFA3A8A5A0948DC5
:1059D00085737263635E5D63636A6F75797F8284CA
:1059E000868584817D7B75746F6F6C7F75839687E8
:1059F000A598A7A39DA79796888A73756C63675E21
:105A000069646C7173797C817F848281807C7B7511
:105A10007571716F8275899988A999ABA19FA795B6
:105A200095868A6E766A62675F6C637071767A7D3E
:105A3000827F847F807C7B787373707072847491B2
:105A4000968DA99AAC9BA39F92908184687564649B
:105A500066626D6675737B7B81827F847E807A7AD5
:105A600076737370717385788E9A90A69FAB9BA3A3
:105A70009F91907F846A71676266626D6674737BC2
:105A80007D7F837F837F807B7977737370726F8074
:105A900083809C979FA2AAA89BA8959384807567F2
:105AA0006B5E6660686A6F7677807E848283817EB3
:105AB0007D7977747371717272818584989BA1A1CD
:105AC000AAA89DA39690857F746B6B6164636768D9
:105AD0006E73767C7E808082807F7E7B7977767520
