:020000040800F2
:10000000901100200501000827250008311C000878
:100010002525000879050008A52D0008000000002E
:100020000000000000000000000000002B25000878
:100030007B05000800000000292500082D25000888
:100040001F0100081F0100081F0100081F01000810
:100050001F0100081F0100081F0100081F01000800
:100060001F0100081F0100081F0100081F010008F0
:100070001F0100081F0100081F0100081F010008E0
:100080001F0100081F0100081F0100081F010008D0
:100090001F0100081F0100081F0100081F010008C0
:1000A0001F0100081F0100081F0100081F010008B0
:1000B000C52500081F010008552600081F0100087B
:1000C0001F0100081F0100081F0100081F01000890
:1000D0001F010008B1290008BD2900081F01000800
:1000E0001F0100081F0100081F010008DFF810D0E1
:1000F00000F030FA004800473D300008AFF30080C0
:10010000901100200648804706480047FEE7FEE7BA
:10011000FEE7FEE7FEE7FEE7FEE7FEE7FEE7FEE7B7
:100120007D250008ED000008202A04DB203A00FAB3
:1001300002F1002070479140C2F1200320FA03F33E
:10014000194390407047202A04DB203A21FA02F03C
:100150000021704721FA02F3D040C2F12002914001
:10016000084319467047202A06DBCB17203A41FA8C
:1001700002F043EAE07306E041FA02F3D040C2F134
:100180002002914008431946704740EA01039B074B
:1001900003D009E008C9121F08C0042AFAD203E0FC
:1001A00011F8013B00F8013B521EF9D27047D2B260
:1001B00001E000F8012B491EFBD270470022F6E750
:1001C00010B513460A4604461946FFF7F0FF2046CD
:1001D00010BD30B505462A460B4612F8010B13F840
:1001E000014B08B1A042F8D01CB1002802D06D1C10
:1001F000F1E7284630BD421C10F8011B0029FBD155
:10020000801A70472DE9FE4F804681EA0300C00F37
:100210000C46009021F0004123F00045B8EB0200AD
:10022000A94105D24046214690461C460B4602464F
:1002300023F00040104347D0270DC7F30A00C3F353
:100240000A510290401A019040286BDAC3F3130060
:1002500040F4801B0098924620B10023D2EB030AA1
:1002600063EB0B0B01985946C0F140025046FFF773
:100270005BFF06460D4650465946019AFFF773FF4D
:1002800010EB08006141002487EA115284EAE77309
:100290001A4340D0009A62B3019A012A4FEA0752EA
:1002A00015DC001B61EB02014FF0004202EA07522D
:1002B000CDE90042001C41F5801132462B4600F08A
:1002C000FAF803B0BDE8F08F40462146F9E7001B7D
:1002D00061EB0201001C41F5801300185B412018FE
:1002E000A2F5001747EB030140EAD570B6196D413E
:1002F00011E06D084FEA360645EAC0754FEA07522D
:10030000001B61EB0201001C41F5801149084FEA16
:1003100030000019514132462B4603B0BDE8F04F82
:1003200000F0BAB80098012240000023D0EB02028E
:1003300063EBE073009821464FEAE074B8EB0000ED
:1003400061EB0401E9E783F000435BE781F00041E2
:1003500058E770B521F0004303430CD0C1F30A55B0
:100360000024D5EB040564EB0403D617AD1AB341A2
:1003700002DB0020014670BD201841EB025170BD28
:1003800096230022114600F059B80EB5C10F80EA3D
:10039000E0700844CA07002140F233438DE80E00A4
:1003A0000A460B4600F087F803B000BD0EB540F2D8
:1003B000334102910021CDE900110A460B4600F0BD
:1003C0007AF803B000BD01F0004330B421F00041E1
:1003D00050EA010206D00A0DA2F56072C1F31301C2
:1003E000002A02DC30BC00207047440F44EAC104FC
:1003F000C100E01830BC00EBC25000F016B830B5B8
:100400000B46014600202022012409E021FA02F5D2
:100410009D4205D303FA02F5491B04FA02F528446C
:10042000151EA2F10102F1DC30BD0029A8BF704702
:10043000401C490008BF20F00100704710B4B0FA1A
:1004400080FC00FA0CF050EA010404BF10BC7047B5
:1004500049B1CCF1200421FA04F411FA0CF118BFCF
:10046000012121430843A3EB0C01CB1D4FEA00619E
:100470004FEA102042BF002010BC704700EBC35071
:1004800010440029A4BF10BC7047401C490008BF9D
:1004900020F0010010BC704710B5141E73F1000469
:1004A00008DA401C41F1000192185B411A4301D166
:1004B00020F0010010BD2DE9F04D92469B4611B190
:1004C000B1FA81F202E0B0FA80F220329046FFF7F2
:1004D0002BFE04460F4640EA0A0041EA0B01534650
:1004E0005A46084313D0114653EA010019D0C8F107
:1004F00040025046FFF727FE05460E465046594635
:100500004246FFF711FE084305D0012004E02046D3
:100510003946BDE8F08D0020054346EAE0762C43DD
:1005200037430A986305E40AA0EB08000022FD0A9D
:1005300044EA47540A3002D500200146E9E70105A4
:1005400010196941DDE9084500196941BDE8F04D20
:10055000A2E70000064C074D06E0E06840F001030A
:1005600094E8070098471034AC42F6D3FFF7C2FD79
:100570000031000820310008FEE77047704770B571
:100580004379012B20D001254571022303710668B0
:10059000346802F0100340F6FE729A409443D1E9A9
:1005A00000210A439A402243326002681468C02145
:1005B00099408C431460026813688B431360057183
:1005C00000214171084670BD022070BD70B5040065
:1005D00003D02079002510B105E0012070BD6571C0
:1005E000204600F007F802202071256101202071CB
:1005F000002070BD00B585B00021009101910291ED
:10060000039100680E49884218D10E48C16941F033
:100610000051C161C16901F000510491816941F04B
:10062000040181618069694600F004000490102093
:10063000009003200190044800F0CCF805B000BD04
:1006400000740040001002400008014018B5046822
:1006500000940068104421B1143000900360002021
:1006600018BD0830F9E710B50268136801F01004EE
:10067000012101FA04F4A34313600171002010BDAD
:100680002DE9F05F90F821100024022903D0042105
:100690008163012485E001680A6822F00E020A6085
:1006A00001680A6822F001020A603F4E3E4FB2150F
:1006B000DFF8F4C0DFF8F090DFF8ECA0DFF8E8B086
:1006C000DFF8E4E00168783F13011502ACF1640C37
:1006D000A9F15009AAF13C0AABF1280BAEF1140EB6
:1006E0004FF48018B14227D9B9420ED0614512D0DB
:1006F00049451DD0514518D0594518D0714501D1F3
:10070000424615E0294EB14201D1012210E0274EA8
:100710001436B14201D110220AE0244E2836B142EB
:1007200006D0224A3C32914201D11A4600E02A46C4
:100730001E49091F0A602BE0B94213D0614517D04A
:10074000494522D051451DD059451DD0714501D193
:1007500042461AE0B14202D14FF0807215E0134ECA
:10076000B14201D1012210E0104E1436B14201D144
:1007700010220AE00D4E2836B14206D00B4A3C3218
:10078000914201D11A4600E02A46074980394A6061
:10079000012180F82110002180F82010416B01B167
:1007A00088472046BDE8F09F8000024008040240D0
:1007B00070B5044600F010F90546601C02D00448EC
:1007C0000078044400F008F9401BA042FAD370BD41
:1007D000440000202DE9F84FDFF8C891002409F10A
:1007E000040A0AF1040B23460F270BF1040ED1E093
:1007F0000125A54006EA0502AA4276D1DFF8A8C184
:100800004E68A6EB0C0866452BD00DDC032E34D0C9
:1008100005DC36B3012E19D0022E2FD11BE0112E8C
:1008200016D0122E2AD119E0B8F5881F19D006DC8F
:10083000B8F5803F15D0B8F5801F1FD111E0B8F58D
:10084000001F0ED0B8F5041F18D10AE0CB6815E0E0
:10085000CB681B1D12E0CB6808330FE0CB680C336C
:100860000CE08B682BB1012B4FF0080303D04561DE
:1008700004E0042302E0056100E00023FF2A01D820
:10088000064601E000F104064FEA840501D9A5F10E
:100890002005D6F8008007FA05FC28EA0C0803FAC0
:1008A00005F548EA0508C6F800804D68ED0070D5EA
:1008B0003E4DAE6946F00106AE61AD6924F0030617
:1008C00005F0010500953A4D06EB050CDCF80850E3
:1008D000A607360F07FA06F825EA0805DFF8D480E0
:1008E000404503D14FF0000825E052E0DFF8C88012
:1008F000404502D14FF001081DE0DFF8C0804045BF
:1009000002D14FF0020816E0DFF8B480404502D172
:100910004FF003080FE0DFF8AC80404502D14FF004
:10092000040808E0DFF8A080404502D14FF0050838
:1009300001E04FF0060808FA06F848EA0508CCF886
:1009400008804D68D9F80060ED034D4601D5164387
:1009500000E096432E604D68DAF80060AD0355461E
:1009600001D5164300E096432E604D68DBF8006029
:10097000ED025D4601D5164300E096432E604D68BA
:10098000DEF80060AD02754601D5164300E09643DF
:100990002E60641C0A681646E2407FF429AFBDE869
:1009A000F88F000000040140000011100010024008
:1009B0000000014000080140000C0140001001400F
:1009C0000014014000180140001C01400AB10161FF
:1009D00070470904FBE70000014880687047000089
:1009E0004400002070B504001BD094F83D000025A1
:1009F00020B984F83C50204600F04AFA242084F8BC
:100A00003D002068016821F00101016000F0BAFB9F
:100A10004D4A6168914201D84C4900E04C498842F6
:100A200001D2012070BD4B492368B0FBF1F15E6833
:100A300026F03F060E435E606368934206D94FF48A
:100A4000967359434FF47A73B1FBF3F12368491C51
:100A50001E6A26F03F06314319626168914210D840
:100A60004900401EB0FBF1F2521CC2F30B02042AF3
:100A700001D2042022E0B0FBF1F0401CC0F30B00D7
:100A80001CE0A368F3B301EBC10202EB0116421EA6
:100A9000B2FBF6F2521C42F48042120549D093B3E5
:100AA00001EBC10202EB0111401EB0FBF1F0401C52
:100AB000C0F30B0040F4804040F400402168CA6954
:100AC0004CF6FF739A431043C861D4E90701084309
:100AD00021680A6822F0C00210430860D4E90301CB
:100AE00001432068826848F2FF339A4311438160D2
:100AF000D4E9050108432168CA6822F0FF021043C7
:100B0000C86001E00EE016E02068016841F00101D4
:100B100001602564202084F83D00256384F83E5060
:100B2000002070BD01EB4106421EB2FBF6F2521CE2
:100B3000B3E70120C2E701EB4101401EB0FBF1F039
:100B4000401CC0F30B00B7E7A086010080841E00A4
:100B500000093D0040420F002DE9F84F1F46904626
:100B60008A460446DDF82890FFF736FF054694F8DC
:100B70003D00202879D1192301227749204600958C
:100B800001F042F90028F5D194F83C0001286CD01E
:100B9000012084F83C0020680168C90703D101687E
:100BA00041F0010101602068016821F400610160E9
:100BB000222084F83D00102084F83E0000262664A0
:100BC000C4F824806785608D20856448E0622B46E8
:100BD0004A465146204601F043F800287ED1208D38
:100BE0005F4F68B1012814D00228206801681ED028
:100BF00041F48061016020684169806900909DE056
:100C00002068416981690091016841F400710160C7
:100C100094E02068016821F48061016072B6206868
:100C2000416981690091016841F400710AE041F471
:100C30000061016072B620684169816900910168B4
:100C400021F48061016062B678E0032850D8012861
:100C50000CD002284B464FF0000239462046009542
:100C60000FD001F0D1F8C8BB10E073E02A46494626
:100C7000204601F048F988BB20680069616A087065
:100C800053E001F0C1F848BB72B61AE02068016871
:100C900021F48061016072B620680069616A0870A1
:100CA000606A401C6062208D401E2085608D401E61
:100CB00060854B46002239462046009501F0A4F895
:100CC00060B92068016841F4007101602068006922
:100CD000616A0870606A401C606200E00EE0218D6D
:100CE000491E2185618D491E618562B621681AE021
:100CF0002A464946204601F006F910B10120BDE818
:100D0000F88F20680069616A0870606A401C606240
:100D1000218D491E2185618D491E618521684A69A1
:100D2000D24352070AD409690170606A401C6062AC
:100D3000208D401E2085608D401E6085208D0028FE
:100D400083D1202084F83D0084F83E6084F83C6024
:100D50000020D4E70220D2E7020010000000FFFFCD
:100D6000040001002DE9F84F1F4690468A460446CC
:100D7000DDF82890FFF730FE054694F83D00202866
:100D80007FD11923012240492046009501F03CF80B
:100D9000002876D194F83C00012872D0012084F814
:100DA0003C0020680168C90703D1016841F00101D6
:100DB00001602068016821F400610160212084F84D
:100DC0003D00102084F83E0000262664C4F82480EC
:100DD0006785608D20852D48E0622B464A46514646
:100DE000204600F0A7FF90B9206841698069009013
:100DF00036E02A464946204601F0B8F850B1206C4A
:100E0000042804D12068016841F4007101600120C8
:100E1000BDE8F88F606A216800780861606A401C4C
:100E20006062618D491E6185218D491E89B22185CF
:100E300022685369DB435B070BD451B10078106122
:100E4000606A401C6062608D401E6085208D401E7F
:100E500020852A464946204600F0B0FF0028CED122
:100E6000208D0028C5D154F83D0B016841F4007174
:100E70000160202004F81E09E67766770020C7E7A6
:100E8000FFE70220C4E70000020010000000FFFF9F
:100E900030B585B0002100910191029103911E4D62
:100EA00003681E4C122103221D48AB4216D1A369D0
:100EB00043F00803A361A369039203F008030493BA
:100EC000C023CDE900316946FFF784FCE06940F4B6
:100ED0000010E061E06900F4001019E0114DAB4230
:100EE00017D1A36943F00803A361A369039203F038
:100EF000080304934FF44063CDE900316946FFF7DE
:100F000069FCE06940F48000E061E06900F4800081
:100F1000049005B030BD00000054004000100240B5
:100F2000000C0140005800400248816802781144DA
:100F30008160704744000020074810B5016841F007
:100F400010010160032000F075F8002000F006F8A1
:100F500000F024F8002010BD0020024070B50D4DB7
:100F600004464FF47A712878B1FBF0F00A49096819
:100F7000B1FBF0F000F0ECFA48B9102C07D20022D7
:100F80002146501E00F036F800206C6070BD012034
:100F900070BD000044000020500000200C4808B53F
:100FA000816941F001018161816901F001010091D4
:100FB000C16941F08051C161C06900F0805000906A
:100FC0000448416821F0E06141F00071416008BDD2
:100FD0000010024000000140002809DB00F01F0261
:100FE000012191404009800000F1E020C0F800118B
:100FF00070470000F0B40E4B1B680C46C3F302238D
:10100000C3F10705042D00D90425191D072901D2B4
:10101000002300E0DB1E012606FA05F1491E2140EF
:1010200099409E40761E16403143F0BC01F0D0BE80
:101030000CED00E0064900F0070208684FF6FF03D8
:10104000184040EA0220034A10430860704700003D
:101050000CED00E00000FA052DE9F0470F46050011
:1010600061D0434E306800F00700B84209D23068C2
:1010700020F0070038433060306800F00700B842C5
:1010800051D128683B4C810712D5400703D56068D1
:1010900040F4E06060602878000703D5606840F4A1
:1010A000605060606068A96820F0F00008436060EC
:1010B0002878C00728D06868012810D02168022845
:1010C00010D0890700292EDA616821F0030101435D
:1010D0006160FFF781FC804641F288390DE02168AC
:1010E0008903EFE78901EDE7FFF776FCA0EB080144
:1010F000494502D90320BDE8F0876068696800F0BF
:101100000C00B0EB810FEFD1306800F00700B8425F
:101110000BD9306820F0070038433060306800F0A9
:101120000700B84201D00120E5E72878400705D53F
:101130006068E96820F4E060084360602878000790
:1011400006D56068296920F4605040EAC1006060FB
:1011500000F038F86168084AC1F30311515CC840D7
:101160000649086006480068FFF7F8FE0020C2E75D
:101170000020024000100240E8300008500000202B
:10118000480000200448054900684968044AC1F342
:101190000221515CC84070475000002000100240FE
:1011A000F83000080448054900684968044AC1F35A
:1011B000C221515CC840704750000020001002401E
:1011C000F830000812A185B00FC98DE80F0014A0F7
:1011D000144A006804905168134801F00C03042B72
:1011E00010D0082B0ED1C1F38343C9031DF80300AF
:1011F0000AD5516804AAC1F34041515C0A4A5043E0
:10120000B0FBF1F005B0704708494843FAE7000029
:1012100002030405060708090A0B0C0D0E0F101037
:10122000010200000010024000127A0000093D0097
:101230002DE9F84F040070D02078C04DC00749D088
:101240006868C0F38100012807D06868C0F3810096
:10125000022809D16868C00306D52868800339D5FB
:1012600060680028E7D035E06068B0F5803F0BD0BB
:1012700010B1B0F5A02F11D0286820F4803028607C
:10128000286820F4802002E0286840F4803028603C
:10129000606890B1FFF7A0FB06460AE0286840F4BA
:1012A00080202860F0E700BFFFF796FB801B6428D2
:1012B00073D828688003F7D50CE0FFF78DFB06464E
:1012C00005E000BFFFF788FB801B6428F0D8286882
:1012D0008003F7D420789A4E80074FF001094FF031
:1012E000000839D5686810F00C0F07D06868C0F3A3
:1012F0008100022809D16868C00306D428688007E5
:1013000014D52069012808D110E02069B0B1C6F8D1
:101310000090FFF761FB074605E00AE1FFF75CFB81
:10132000C01B0228C4D828688007F7D528686169DF
:1013300020F0F80040EAC10028600DE0C6F8008007
:10134000FFF74AFB074604E0FFF746FBC01B0228F5
:1013500023D828688007F7D4207800072CD579484F
:10136000A169D9B1C0F80090FFF736FB074604E049
:10137000FFF732FBC01B02280FD8686A8007F7D539
:1013800071484FF4FA510068B0FBF1F0009000BFD3
:101390000098411E0091FAD20EE080E0C0F8008073
:1013A000FFF71AFB074604E0FFF716FBC01B0228F5
:1013B00075D8686A8007F7D42078400760D5E86957
:1013C0000027C00008D4E86940F08050E861E8696F
:1013D000012700F0805000905C480168C90513D4D3
:1013E0000168834641F480710160FFF7F5FA824697
:1013F00006E000BFFFF7F0FAA0EB0A0064284ED821
:10140000DBF80000C005F5D5E06801280AD008B176
:10141000052813D0286A20F001002862286A20F0ED
:10142000040002E0286A40F001002862E06841F20E
:10143000883B98B1FFF7D0FA82460BE0286A40F06B
:1014400004002862EEE700BFFFF7C6FAA0EB0A012E
:1014500059455AD8286A8007F6D50CE0FFF7BCFA40
:10146000824605E0FFF7B8FAA0EB0A0159454CD8CF
:10147000286A8007F6D41FB1E86920F08050E8613F
:10148000E06988B36968C1F38101022944D0022868
:10149000C6F8608004D0FFF79FFA044638E034E0D5
:1014A000FFF79AFA074604E0FFF796FAC01B0228F6
:1014B0002BD828688001F7D4206AB0F5803F05D189
:1014C0006868A16820F4003008436860D4E9080126
:1014D0000843696821F4741108436860C6F8609095
:1014E000FFF77AFA044606E025E000BFFFF774FA3A
:1014F000001B022809D828688001F7D51BE000BF2F
:10150000FFF76AFA001B022802D90320BDE8F88F12
:1015100028688001F4D40EE00128F7D06868226AB8
:1015200000F48031914204D1616A00F47010884265
:1015300001D00120EAE70020E8E7000000100240A7
:1015400000004242800442425000002000700040EF
:1015500010B5401EB0F1807F01D3012010BD4FF0C7
:10156000E02460610F21601701F032FC0020A061CF
:1015700007202061002010BD7047704770B590F8BB
:101580003C20012A19D0012400F83C4F022242706D
:1015900050F83C3C5A689D6822F070060A68496819
:1015A000324325F0800529435A6050F83C2C916065
:1015B000447000210170084670BD022070BD10B556
:1015C000040003D094F83D0010B107E0012010BDE5
:1015D000002084F83C00204600F00CF8022084F83B
:1015E0003D00211D206801F047F8012084F83D00EE
:1015F000002010BD08B501681448B1F1804F14D027
:10160000134A914220D1C16941F00401C161C0690E
:10161000002200F00400009011461E20FFF7EAFCB3
:101620001E20BDE80840FFF7D7BCC16941F00101A9
:10163000C161C069002200F00100009011461C2029
:10164000FFF7D8FC1C20ECE708BD000000100240AA
:10165000000800400168CA6842F00102CA600068E0
:10166000816801F00701062903D0016841F00101FA
:101670000160002070470168CA6822F00102CA6058
:101680000068016A41F21112114207D1016A9210F9
:10169000114203D1016821F001010160002070476F
:1016A00070B5044690F83C00012817D0012584F855
:1016B0003C50022084F83D002068826822F07702C6
:1016C00022F47F4282600868502830D00DDC202848
:1016D0004DD005DC98B310283BD148E0022070BD06
:1016E000302844D0402834D139E0602828D07028F0
:1016F00006D0B0F5805F2CD0B0F5005F29D10AE0AC
:10170000CB68D1E90121206800F0FCFF20688168E6
:1017100041F0770109E0CB68D1E90121206800F0B0
:10172000F1FF2068816841F48041816011E0CA685E
:101730004968206800F0F8FF5021206807E016E0B3
:10174000CA684968206801F000F86021206800F04C
:10175000E3FF84F83D50002084F83C0070BDCA6867
:101760004968206800F0E0FF40212068EFE7226828
:1017700001461046EBE7704770B504460068016902
:101780004FF00005C943890715D4C168C9438907CB
:1017900011D4E91E0161012020772068806980074B
:1017A000204602D0FFF7E7FF04E000F098F820465B
:1017B00000F096F8257720680169C943490717D4D6
:1017C000C168C943490713D46FF0040101610220C5
:1017D00020772068806910F4407F204602D0FFF710
:1017E000CAFF04E000F07BF8204600F079F8257786
:1017F00020680169C943090716D4C168C9430907AC
:1018000012D46FF008010161042020772068C069BC
:101810008007204602D0FFF7AEFF04E000F05FF83B
:10182000204600F05DF8257720680169C943C906A4
:1018300017D4C168C943C90613D46FF01001016100
:10184000082020772068C06910F4407F204602D02D
:10185000FFF791FF04E000F042F8204600F040F866
:10186000257720680169C943C90708D1C168C94300
:10187000C90704D1891E0161204600F032F82068B2
:101880000169C943090609D4C168C943090605D4D9
:101890006FF0800101612046FFF76EFE206801694C
:1018A000C943490609D4C168C943490605D46FF044
:1018B00040010161204600F015F820680169C94324
:1018C00089060BD4C168C943890607D46FF020018B
:1018D00001612046BDE87040FFF74FBE70BD704704
:1018E000704770477047704770B5026804461068CB
:1018F000D168536910F00F0F50D003F0010501F4C7
:10190000907635435DD0C20705D0CA0503D5E26B9A
:1019100042F00102E263420705D5DA0703D0E26B29
:1019200042F00202E263820705D5DA0703D0E26BD8
:1019300042F00402E263020705D5DA0703D0E26B46
:1019400042F00802E263E26B002A33D0800604D53D
:10195000880602D5204600F020FF20684069E16B30
:10196000C0F38010090700D428B3204600F007FF19
:101970002068416949061AD5416921F04001416159
:10198000606BA0B11B494163606BFEF779FE0028D4
:1019900010D0606B416BBDE870400847830610D5DE
:1019A0008B060ED52046BDE8704000F0F6BE2046FE
:1019B000FFF799FF70BD2046FFF795FF0020E06319
:1019C00070BD030606D50B0604D52046BDE8704061
:1019D00000F08ABF4006F3D54806F1D5D16820460D
:1019E00021F04001D160202184F8391000F01FF966
:1019F00070BD00006F27000870B5040004D094F893
:101A00003900002510B106E0012070BD84F838507F
:101A1000204600F023F8242084F839002068C168AB
:101A200021F40051C160204600F002FF20680169E6
:101A300021F4904101612068416921F02A0141614E
:101A40002068C16841F40051C160E563202084F83A
:101A5000390084F83A00002070BD000070B586B0EF
:101A6000002400940194029403942E4E03682E499E
:101A7000022003222D4DB34226D18B6943F48043CB
:101A80008B618B6903F4804304938B6943F00403F7
:101A90008B618969039201F0040104910102CDE98F
:101AA000001069462846FEF795FE2815CDE900048A
:101AB000694628460294FEF78DFE00221146252035
:101AC000FFF798FA252028E0194EB34227D1CB69B9
:101AD00043F40033CB61CB6903F4003304938B6987
:101AE00043F004038B618969039201F004010491BE
:101AF0000421CDE9001069462846FEF76BFE082058
:101B0000CDE90004694628460294FEF763FE0022F0
:101B100011462620FFF76EFA2620FFF75DFA06B081
:101B200070BD000000380140001002400008014074
:101B30000044004070472DE9F843044690F839000E
:101B40001F4616460D46202850D1A5B19EB194F8E7
:101B5000380001284AD0012084F838004FF00008EE
:101B6000C4F83C80212084F83900FEF735FFA684B4
:101B70008146E68426E00120BDE8F883E08C401E23
:101B8000E084A0684B46B0F5805F4FF000024FF054
:101B900080012046009703D000F0D7FEE8B90DE0A1
:101BA00000F0D3FEC8B928882168C0F30800486057
:101BB000206908B16D1C05E0AD1C03E0216815F833
:101BC000010B4860E08C0028D8D14B460022402110
:101BD0002046009700F0B9FE08B10320CCE7202092
:101BE00084F8390084F838800020C5E70220C3E774
:101BF00090F83930202B18D1A9B1A2B190F8383023
:101C0000012B12D001628284C2840021C16321228F
:101C100080F8392080F838100068C16841F08001F0
:101C2000C160002070470120704702207047704754
:101C3000FEE701684A69D24352050FD46FF480620F
:101C40004A61002140F8301F2022427381730269EB
:101C500042F00402026101730120704700207047C6
:101C60002DE9F84F0446C06A1E4692460D4621688B
:101C70000A6842F480620A60082807D0012805D06B
:101C800010F5803F02D0206B112804D12068016834
:101C900041F4807101604FF0011853460022414623
:101CA0002046009600F0B0F8F0BB206908F1010969
:101CB000B0F5804F0FD00620216800EAD51747F015
:101CC000F00008613346524608F10701204600F053
:101CD000CFF848BB03E0E8B240F001001BE0216808
:101CE000E8B20861334652464946204600F0C0F843
:101CF000D0B92068416981690091016841F480711F
:101D000001605346002241462046009600F07CF8D0
:101D100050B947F0F1002168086133465246494600
:101D2000204600F0A5F800E001E0002800D00120E6
:101D3000BDE8F88FF8B50446C06A1E460D46174642
:101D4000082807D0012805D010F5803F02D0206B6D
:101D5000122804D12068016841F4807101601346A3
:101D600000224FF001112046009600F04DF808BB0C
:101D70002069B0F5804F0ED00620216800EAD5100A
:101D800040F0F000086133463A460B49204600F027
:101D90006FF878B902E005F0FE0000E0E8B22168D3
:101DA0000861054933463A46891F204600F060F82D
:101DB000002800D00120F8BD0800010070B51646CB
:101DC0000D4604460DE02046FFF733FF08B1012021
:101DD00070BD681C05D0FEF7FFFD801BA84207D828
:101DE00035B120684069C0434007ECD4002070BD85
:101DF000002044F8300F20216173A073216941F065
:101E0000200121612073E2E72DE9F0471E4690464C
:101E10000D460446C1F30747DDF8209008E0701C2A
:101E200006D0FEF7D9FDA0EB0900B0420FD876B17D
:101E30002068012F18D0806925EA00000004000CFA
:101E400014D000214145EAD00020BDE8F0870020F1
:101E500044F8300F20216173A073216941F0200103
:101E6000216120730120F0E74069E5E70121E9E7FE
:101E70002DE9F0479A4691460E46044600254FF05C
:101E80002008C1F3074725E020684069C0434005AA
:101E900014D42068016841F40071016021686FF476
:101EA00080604861256384F83D8084F83E50206C52
:101EB00040F00400206484F83C501FE0B9F1FF3F7B
:101EC00008D0FEF789FDA0EB0A0149450CD8B9F10D
:101ED000000F09D02068012F13D0806926EA000086
:101EE0000004000C0BD0CFE744F8305F84F80D807D
:101EF000A573206940F02000206125730120BDE812
:101F0000F0874069EAE72DE9F041002590460E464A
:101F10000446202717E04069C043C0060CD454F89B
:101F2000301B6FF01000486144F810596777A577AF
:101F3000206A2062257717E0FEF74EFDA0EB08002F
:101F4000B04208D83EB120684169C9434906E2D48D
:101F50000020BDE8F08144F8305F6773A573206905
:101F600040F02000206125730120F2E770B516468D
:101F70000D4604460DE02046FFF75BFE08B1012048
:101F800070BD681C05D0FEF727FD801BA84207D84E
:101F900035B120684069C0430006ECD4002070BD14
:101FA000002044F8300F20216173A073216941F0B3
:101FB000200121612073E2E7C007000E01F001015A
:101FC00040EA811002F0010140EA411003F00101F2
:101FD00040EA0111012000F031B9000010B50020E5
:101FE00000F0CCF8154CC10919D000F093F8207816
:101FF000022802D0032806D00CE010221049E06825
:1020000000F066F806E00E4A102302F12001E068B5
:1020100000F018F82078BDE8104000F0E5B880091D
:10202000C0070AD000F0C4F800232061BDE81040CA
:102030001A4619460120FFF7BFBF10BD140000204B
:10204000540700202DE9F0438DB099461746884685
:102050000024174D27E000BF37F81400FEF790F971
:102060001449EE8841F8260038F81400FEF788F984
:10207000114941F82600761CEE8038F8143037F804
:1020800014200EA1684600F08FFE0021684600F083
:10209000BDFFE888E02804D300200C49E880012037
:1020A0000870641CE4B24C45D6D30DB0BDE8F08393
:1020B0001400002054000020D403002068723A2548
:1020C000642073706F323A25640D0A0028000020E6
:1020D0002DE9FE43002415460E468046671E10E09B
:1020E00036F8142009A1684600F05EFE6846FEF747
:1020F00082F882B23B4669464046FFF71CFD641CED
:10210000E4B2AC42ECD3BDE8FE830000733A256430
:102110000A000000F0B593B04024214601A8FEF764
:102120004DF80520134E851F8DF8440000950123BE
:1021300011AAAE21B068FEF715FE0095234601AA4C
:10214000AE21B068FEF708FD0B4D002001AA05F195
:10215000200611180B885FBA8308001D25F813703C
:102160004988C0B249BA26F81310A042F1D313B07F
:10217000F0BD000014000020540700203EB50B4DB8
:102180004FF0FF348DF804000094012301AAAE2122
:10219000A868FEF7E7FD0094012302AAAE21A86813
:1021A000FEF7DAFC9DF808003EBD00001400002098
:1021B00070B51620FFF7E2FF45B21720FFF7DEFFEC
:1021C000FEF7F4F86FF00302FEF7C3F806460C467C
:1021D0002846FEF7DAF832462346FEF713F8BDE844
:1021E0007040FEF7F0B8000070B5134D044628703B
:1021F0000620FFF7C3FF64F30200032C0ED020F08B
:102200000801062000F01AF82878032809D04FF0BA
:10221000000302281A4619460BD005E040F00801D9
:10222000EFE700231A4601210020BDE87040FFF7C8
:10223000C3BE0120F9E70000140000201CB50223F2
:102240008DF804004FF0FF30009004488DF8051021
:1022500001AAAE218068FEF785FD1CBD1400002098
:102260001CB500240C4900940A48019408600846F3
:10227000FEF7ACF908B1FEF781F900940022694637
:1022800005480194FEF77BF9002801D0FEF776F9A6
:102290001CBD000000740040940700202DE9F041AF
:1022A00086B000242B480094019402940394816921
:1022B00041F010018161816901F01001049181698F
:1022C00041F020018161816901F02001049181695F
:1022D00041F004018161816901F004010491816987
:1022E00041F00801816180691B4F00F008000490F3
:1022F000002203213846FEF769FBDFF860800022E8
:1023000023214046FEF762FB7814CDE900046946BC
:1023100013480294FEF75EFA032001250226CDE958
:102320000005CDE9024669463846FEF753FA2320F8
:10233000CDE90005CDE9024669464046FEF74AFA76
:102340000848416841F0E06141F40041416006B055
:10235000BDE8F08100100240001401400008014077
:1023600000100140000001400D4810B50B4901600C
:102370000C49416000214FF480428160C0E90312A2
:1023800041618161C1610162FEF72CFB002803D02D
:10239000BDE81040FEF7F2B810BD00000054004048
:1023A000A8070020801A06000D4810B50B490160EF
:1023B0000C49416000214FF480428160C0E9031262
:1023C00041618161C1610162FEF70CFB002803D00D
:1023D000BDE81040FEF7D2B810BD00000058004024
:1023E000FC070020A086010010B586B00024164826
:1023F000009401940294039404944FF08041059456
:1024000001604FF4FA61C0E901140321C0E903142B
:102410008461FFF7D4F808B1FEF7B0F84FF48050AC
:10242000009069460848FFF73BF908B1FEF7A6F8A7
:10243000049404A904480594FFF7A0F8002801D0EB
:10244000FEF79CF806B010BD5008002010B586B00D
:1024500000241748009401940294039404941349AF
:10246000059401604FF4C851C0E901144021C0E94E
:1024700003148461FFF7A3F808B1FEF77FF84FF467
:102480008050009069460A48FFF70AF908B1FEF744
:1024900075F8049404A906480594FFF76FF800281E
:1024A00001D0FEF76BF806B010BD00000008004038
:1024B000900800200C4810B50A4901604FF4E13142
:1024C0004160002181600C22C160C0E90412816179
:1024D000C161FFF791FA002803D0BDE81040FEF774
:1024E0004DB810BD00380140D00800200C4810B590
:1024F0000A4901604FF4E1314160002181600C2202
:10250000C160C0E904128161C161FFF775FA00285A
:1025100003D0BDE81040FEF731B810BD00440040C4
:1025200010090020FEE7704770477047FEF7FCBCBB
:1025300030B58FB028216846FDF740FE14210AA867
:10254000FDF73CFE02240120049000941020059029
:1025500000254FF46010CDE9085007946846FEF757
:1025600067FE0AA90F2081E831006002CDE90D0560
:1025700002210AA8FEF770FD0FB030BD0D480168BA
:1025800041F00101016041680B4A1140416001685E
:102590000A4A11400160016821F48021016041680C
:1025A00021F4FE0141604FF41F0181600449C00322
:1025B00008607047001002400000FFF8FFFFF6FEC1
:1025C00008ED00E010B51948FFF7D6F81848194C87
:1025D000002200682168435C174811460078434395
:1025E0001648FEF733F820681549401C206009683A
:1025F000884219D31348016841F02001016000208E
:10260000014620600D48FEF72EF80848FFF733F822
:102610000D48FFF71FF80D494020C1F800010C4894
:10262000016841F02001016010BD00005008002049
:10263000100000200C000020010000209407002062
:10264000080000200C0801409008002004E000E091
:102650000C44004010B50648FFF78EF80548806826
:10266000800403D4BDE81040FFF7B8BC10BD0000E3
:102670009008002000100140F0B502681C4B1D4D71
:102680001D4E1E4F1E4C4FF0804C984209D0A04268
:1026900007D0604505D0A84203D0B04201D0B8426F
:1026A00004D122F0700E4A6842EA0E02984209D024
:1026B000A04207D0604505D0A84203D0B04201D067
:1026C000B84203D122F44075CA682A434D6922F00A
:1026D00080022A4302608A68C2620A688262984263
:1026E00001D0A04201D10969016301214161F0BD1E
:1026F000002C01400004004000080040000C004095
:102700000034014010B5846842EA032224F47F4477
:102710000A432243826010BD826822F070020A439D
:1027200042F007018160704710B5036A046A24F023
:1027300001040462846924F0F00444EA021423F0E2
:102740000A020A438461026210BD10B5036A23F0D5
:10275000100303628369046A23F4704343EA02327C
:1027600024F0A00343EA01118261016210BD10B59B
:10277000406A0021C185C184FFF7B5F810BD01682A
:10278000CA6822F49072CA6001684A6922F00102A4
:102790004A61202180F83A10704710B590F83A103D
:1027A000222901D0022010BD8168B1F5805F11D0CF
:1027B0000169002901681FD0496801F07F03816A1F
:1027C0004A1C82620B70C18D491E0904090CC18527
:1027D00018D02BE00269816A002A0268526805D08D
:1027E000D2B20A80816A491C8162ECE7C2F3080216
:1027F0000A80816A891CF7E74A68816A4B1C8362F8
:102800000A70E0E70168CA6822F02002CA60016825
:10281000CA6822F48072CA6001684A6922F0010223
:102820004A61202180F83A10FFF784F9002010BD9A
:102830002DE9F041044600680169E26821F4405145
:10284000114301612169A068084361690843216857
:10285000CA6841F20C639A430243CA602068416926
:10286000A26921F44071114341611E492068642529
:102870003226884202D1FEF795FC01E0FEF782FC89
:1028800000EBC00101EB001160686FF018078000D9
:10289000B1FBF0F2B2FBF5F2B1FBF0F37A4303EBDC
:1028A0008202B1FBF0F306EB0212B2FBF5F2B3FBCE
:1028B000F5F302F0F00202EB0312B1FBF0F3B1FB0F
:1028C000F0F0B0FBF5F0784303EB800006EB00106E
:1028D000B0FBF5F0216800F00F0010448860BDE8FF
:1028E000F08100000038014090F83910212901D012
:1028F000022070478168B1F5805F016A0BD04A1CE5
:102900000262026809785160C18C491E0904090CF1
:10291000C1840ED017E009880268C1F30801516034
:1029200001690029016A02D0491C0162ECE7891C97
:10293000FBE70168CA6822F08002CA600068C168CB
:1029400041F04001C160002070472DE9F0419846F8
:1029500017460E460446069D1DE0681C1BD02DB18F
:10296000FEF73AF8A0EB0800A84214D92068C16825
:1029700021F4D071C1602068416921F001014161F9
:10298000202084F8390084F83A00002084F83800C8
:102990000320BDE8F0812068006836EA000004D01A
:1029A0000020B842D9D00020F3E70120F9E7000069
:1029B0000148FEF799BF0000D00800202DE9FC4136
:1029C0009648FEF791FF95480068C16841F02001E4
:1029D000C16093480068800635D59148001D0068A5
:1029E000904CC1B2904E21700D2901D00A2901D11D
:1029F000A08818B1A0883154401CA08080B2811EEC
:102A0000002539297CD2311811F8022C0D2A03D166
:102A100011F8011C0A2918D021898A0613D5022829
:102A200011D130783E280ED1707820280BD1A580A6
:102A300000203554401C80B23C28FAD321F02000FD
:102A400040F010002081BDE8FC8178490D803554AC
:102A500077A17548FDF7BDFB58B977A17248FDF71E
:102A6000B8FB30B976A17048FDF7B3FB08B9A08870
:102A70003554A58075A16C48FDF7ABFB28B12089C2
:102A8000810702D520F002006AE072A16648FDF7D6
:102A9000A0FB38B1208940F004002081E08840F09C
:102AA000040029E06EA16048FDF793FB28B10121E5
:102AB0005D4800F0ABFAA5809AE06BA15A48FDF79B
:102AC00088FB022740B1208920F004002081A079F2
:102AD0008007F1D4E7808BE067A15348FDF779FBCD
:102AE00078B1012166A000F091FA208940F0080039
:102AF0002081E08840F02000E0806570A57077E0DC
:102B00007DE067A14848FDF764FB48B966A14648E7
:102B1000FDF75FFB20B966A14348FDF75AFB78B18A
:102B2000012168A000F072FA208920F008002081BD
:102B3000E08840F00800E080FDF74EFF206157E09C
:102B400069A13948FDF745FB10B1012169A04DE0AD
:102B500072A13548FDF73DFB28B1012172A009E0C3
:102B600040F0010013E07AA12F48FDF732FB30B1AD
:102B700001217AA000F04AFAE7802089F0E77FA1DE
:102B80002948FDF726FB20B1208940F04000208134
:102B90002EE07CA12448FDF71CFB48B300950020E3
:102BA000694601953218D2790A54401CC0B20728F0
:102BB000F8D3BDF805700521684600F00BFAB8425D
:102BC00016D1208940F0800020819DF804009DF8F6
:102BD000031041EA00209DF8021041EA00209DF810
:102BE000011041EA0020E060012168A000F00EFA27
:102BF00000203554401C80B23C28FAD323E73C28FF
:102C0000FCD300203554401C80B23C28FAD3A58068
:102C1000BDE8FC4101210EA000F0F8B91009002028
:102C20000044004030000020500900202A0000200D
:102C3000526563762000000053454E44204F4B0000
:102C40006275737920702E2E2E0000004F4B0D0AF6
:102C5000000000005749464920474F542049500082
:102C60002B43574C41503A00574946492044495359
:102C7000434F4E4E45435400636F6E5F6F6B0000D1
:102C80004372656174696E672054435020746F20ED
:102C900074686520736572766572204F4B0D0A006B
:102CA000434C4F5345440000434F534544000000FC
:102CB0006C696E6B206973206E6F742076616C692D
:102CC000640000004372656174696E67205443506C
:102CD00020746F2074686520736572766572204574
:102CE00052524F520D0A00002B43574A41503A327C
:102CF00000000000496E76616C6964207061737336
:102D0000776F726421205265626F6F7420646576FC
:102D10006963652E2E2E0D0A000000002B43574AD2
:102D200041503A3300000000506F696E7420646FA8
:102D30006573206E6F742065786973742120526505
:102D4000636F6E6E6563742E2E2E0D0A00000000F8
:102D50002B43574A41503A310000000054696D65D9
:102D60006F7574206572726F7221205265636F6E89
:102D70006E6563742E2E2E0D0A000000745F6F6B5B
:102D80000D0A00002B4950442C370000526563693E
:102D90007665206E657720636F6D6D616E640D0AD8
:102DA00000000000FEE700000FB4084B10B504A9B6
:102DB00002AA039800F02CF8044602A9002000F0B3
:102DC00003F9204610BC5DF814FB0000C92F000871
:102DD0000907090E002804DB00F1E02080F8001448
:102DE000704700F00F0000F1E02080F8141D7047DC
:102DF00002E008C8121F08C1002AFAD170477047C4
:102E0000002001E001C1121F002AFBD17047000021
:102E10002DE9FF4F8BB09A460F460546002606E087
:102E200025280BD052460D9990476D1C761C2878AA
:102E30000028F5D10FB03046BDE8F08F0024A04641
:102E40000122604900E0044315F8013F203B02FAEB
:102E500003F00842F7D128782E2817D115F8010F72
:102E600044F004042A280ED06FF02F022878A0F135
:102E7000300109290AD808EB880102EB410100EB77
:102E800001086D1CF2E757F8048B6D1C287869283F
:102E90003ED006DC0028CDD063280BD0642804D1B6
:102EA00036E0732810D075284BD052460D999047C4
:102EB000761C85E017F8040B8DF8000000208DF8D3
:102EC0000100E946012003E057F8049B4FF0FF3072
:102ED00061074FF0000401D40AE0641C44450DDA98
:102EE0008442FADB19F804100029F6D106E0641CCC
:102EF0008442FCDB19F804100029F8D1264404E0D0
:102F000019F8010B52460D999047641EF8D257E00C
:102F100001CF4FF00A0B002802DA40422D2102E0D7
:102F2000210504D52B218DF82410012103E0E107B0
:102F300005D02021F7E70DF1200908910CE00021D0
:102F4000F9E701CF4FF00A0BF9E75946FDF757FAB9
:102F500001F1300209F8012D0028F6D1ADEB09008E
:102F600000F1200B600701D44FF00108D84502DDC5
:102F7000A8EB0B0000E000208046002406E009A832
:102F80005246005D0D999047641C761C0898844257
:102F9000F5DB04E0302052460D999047761CB8F1DD
:102FA0000001A8F10108F5DC05E019F8010B524613
:102FB0000D999047761CBBF10001ABF1010BF4DCDD
:102FC0006D1C34E7092801000A68531C0B6010705F
:102FD0007047000030B503464FF6FF7041F2210400
:102FE00010E000BF13F8012B80EA02200022050444
:102FF00002D584EA400000E04000521CD2B280B208
:10300000082AF4D3491E89B2ECD230BD10B504466B
:1030100041B1FDF7F0F8214682B2BDE81040064804
:10302000FEF7E6BDFDF7E7F8214682B2BDE81040A5
:1030300064230148FEF77FBDD008002092B0FDF761
:103040007BFFFFF775FAFFF729F9FFF709F9FFF79B
:1030500031FAFFF74BFAFFF7F9F9FFF7C5F9FFF778
:1030600083F9FFF7A1F91B481B490068B0FBF1F099
:103070001090411E109101D30846FAE72622174905
:103080006846FDF782F8154CE08CADF82600A06A82
:103090000A90A08DADF82C00E08DADF82E0009222D
:1030A00004F130010CA8FDF770F894F839008DF8A0
:1030B000390094F83A008DF83A00E06B0F906423E1
:1030C000052207A16846FEF736FD6420FDF770FB78
:1030D000F5E7000050000020404B4C00D0080020D5
:1030E0003132330D0A000000000000000000000033
:1030F000010203040607080900000000010203049E
:10310000203100080000002054000000F02D0008CD
:1031100074310008540000203C110000002E00080B
:10312000000000000000000000000000000000009F
:10313000000000000000000000000000000000008F
:10314000000000000000000000000000000000007F
:10315000000000000000010000000000000000006E
:10316000000000000100000010000000000000004E
:043170000024F40043
:04000005080000ED02
:00000001FF
