:020000040800F2
:10000000C8050020D5000008C1210008871D000890
:1000100000000000000000000000000000000000E0
:100020000000000000000000000000002522000881
:100030000000000000000000C32100082722000883
:100040000501000805010008152200080501000847
:100050000501000805010008050100080501000868
:100060000501000805010008050100080501000858
:100070000501000805010008050100080501000848
:100080000501000800000000000000000501000854
:100090000000000005010008050100080501000836
:1000A0000000000005010008050100085D260008A9
:1000B0006D26000800000000050100080501000889
:1000C0000348854600F0A6FB0048004719370008A2
:1000D000C80500200C4880F308880C480168090E08
:1000E0000B4A914205D10B480B4901600B480C4962
:1000F00001600C4880470C480047FEE7FEE7FEE73A
:10010000FEE7FEE7FEE70000C8050020040000004F
:100110001F00000018100240010000000000014014
:10012000000000009D220008C100000830B50B4609
:10013000014600202022012409E00D46D5409D42C1
:1001400005D31D469540491B254695404019154647
:10015000521E002DF1DC30BDF0B51FB40646002064
:1001600082B005464024019100901BE0019922468F
:100170000F46304600F020F8049A059B801A9941FA
:1001800010D310461946224600F0D4F9361A8F4192
:100190000197224601200021009F00F0CBF938187A
:1001A0004D4100902046641E0028DFDC019B009832
:1001B0002946324607B0F0BD10B5202A04DB0846B8
:1001C000203AD040002110BD0B46D340D04020241F
:1001D000A21A91400843194610BD03460B439B07E2
:1001E00003D009E008C9121F08C0042AFAD203E0AC
:1001F0000B780370401C491C521EF9D27047D2B2D2
:1002000001E00270401C491EFBD270470022F6E755
:1002100010B513460A4604461946FFF7F0FF20467C
:1002200010BD30B505462A460B4610781C78521C86
:100230005B1C002801D0A042F7D0002C03D000287E
:1002400002D06D1CEFE7284630BD421C0178401CEF
:100250000029FBD1801A7047F0B507460846584080
:1002600087B0C00F049048000E4659004008490866
:10027000BC1A884105D2384631461E4617460B4601
:1002800002465800400810434CD0300D0390400502
:100290005900400D490D0590401A0290402872DA2D
:1002A00018030121000B09050843019004980092EE
:1002B000002805D001995242002088410092019007
:1002C000029840210A1A0199009800F033F9054676
:1002D0000C466B4607CB00F03DF9C0197141039AFB
:1002E0000E0D0023D71756401A467A40164344D0C5
:1002F000049A002A2DD0029A012A039A15DC1205CD
:10030000C01A914101263605001C7141D20F059E8D
:10031000D2070093019202962A46234600F07BF909
:1003200007B0F0BD38463146FAE71605224A0F46B7
:10033000B218C01AB74101210905001C4F4100182D
:100340007F41114618187941E20F10436D1964413D
:1003500013E0E2076D0815436408C2071443039ACB
:1003600001261205C01A91413605001C7141CE07C5
:10037000400830434908C01851412A46234600F03E
:100380003DF9CDE7FFE7049801224000C117121A9A
:1003900000238B4104983146C417381AA141EEE777
:1003A00030B40124E407634030BC55E730B4012485
:1003B000E407614030BC4FE70000E0FFF0B51FB438
:1003C00088B00B990998002448400999C00F49004A
:1003D00049080991C0070B990090490049080B9101
:1003E00009990898A64608431CD00B990A98084317
:1003F00018D0099801244000420D4800410D099889
:1004000024050003000B204309900B980003000B08
:1004100020430B9050181C494018002201901446AC
:10042000104605E0002001460DB0F0BD032801DABA
:10043000034600E003239C46C11A0AAE0AE05F00AF
:1004400008ADED5B4F00F75B7D430027AA187C41A8
:10045000491C5B1E6145F2DD410004AB5A52210488
:10046000120C0A43240C401C0828DFDB0198029080
:100470000099704601910090059B049A079906988F
:1004800000F0C9F8D0E700000DFCFFFF70B54B008D
:100490005B0803430BD04B005C0D002633466542DE
:1004A000B341D417AD1AA34102DB0020014670BD51
:1004B00012053018514170BD0EB505490291002159
:1004C00000910A460B46019100F0A5F803B000BD6B
:1004D00033040000C20FD207400040080BD0C10D0A
:1004E0000723DB01C91840020905400A1143C2086D
:1004F000400711437047002001467047CB0FDB07D0
:10050000490010B5490802460A4307D00A0D0724DE
:100510000903E401090B121B002A01DC002010BDB5
:10052000C900440F0C43C100E018D205801800F048
:1005300024F810BD10B5202A04DB0146203A914072
:10054000002010BD914020239C1A0346E34019432C
:10055000904010BD10B5202A06DBCB170846203A84
:100560001041C1170B4306E00B461341D040202435
:10057000A21A91400843194610BD002904DA401C14
:10058000490001D140084000704770B40024050CB8
:1005900005D11024000402D1002921D01124050E18
:1005A00001D100020834050F01D10001241D850F7F
:1005B00001D18000A41C002801DB4000641C00293C
:1005C00008D020252E1B0D46F540A14000D001216A
:1005D0002943084301061B1B000ADB1D02D500202E
:1005E00070BC7047DB05181880180029F8DA401C29
:1005F0004900F5D170BC40084000704710B5002B91
:1006000008DA0024401C614192185B411A4301D171
:100610004008400010BDF0B51FB482B005460C0084
:1006200003D0084602F00CFA02E002F009FA20308A
:100630000246009021462846FFF77CFF049B059A5E
:1006400004460F4618431143084314D0184610437C
:100650001BD0009840210A1A18460599FFF7ACFDF7
:1006600005460E46009A05990498FFF763FF084374
:1006700005D0012004E02046394607B0F0BD002037
:10068000C11705430E432C43374300990E98630569
:10069000401A7905E40A00220C43FD0A0A3002D50B
:1006A00000200146E9E70105101969410C9C0D9DE8
:1006B00000196941FFF7A2FFDFE70000F0B50C4623
:1006C0005C4085B0E40FE40703944C000026640806
:1006D00059009446490802460296224321D06246B8
:1006E0000A431ED06200570D4A000E032303550D26
:1006F000012402462C492405781B1B0B360B40189D
:1007000023432643614600901C46501AB44103D34C
:100710000098401C009002E0921800985B4100286D
:1007200003DA0020014605B0F0BD002001210905D3
:100730000746864611E064461D46141BB54106D3A4
:100740006546521BB341744607430C43A646CD078A
:1007500040084908284392185B4105460D43EAD1F9
:100760001046184313D06046194650407140084364
:1007700006D06046101AB34106D20122002306E0DB
:1007800000220123DB0702E00122D243531000982C
:1007900074460105381C6141029C039D00196941A2
:1007A000FFF72CFFBFE70000FD0300004A0009032C
:1007B0000123090B1B0519430A4B10B5520D9A4230
:1007C00002DA0020014610BD064B34339A4203DCA6
:1007D0009A1AFFF7F1FC10BD034BD218FFF7AAFEDF
:1007E00010BD0000FF030000CDFBFFFF10B5002986
:1007F00004DB0124E40740428C412146002B04DB4A
:100800001C460123DB075242A341994200D190428A
:1008100010BD0000064C0125064E05E0E36807CC3C
:100820002B430C3C98471034B442F7D3FFF74CFCF1
:10083000003C0008203C0008704770B500240146C9
:1008400020314A78022A03D004218163012416E072
:10085000026813680E25AB431360026813685B08D7
:100860005B0013600122056C1346AB40C56B6B60E7
:100870004A7000220A70416B002900D08847204648
:1008800070BD000070B5044600F0B2F80546601C6B
:1008900002D004480078241800F0AAF8401BA042B7
:1008A000FAD370BD10000020F8B5002389E00124C0
:1008B0009C402A46A44622407ED04C68022C01D09F
:1008C000122C0CD1DC08A40027183C6A5D07ED0E41
:1008D0000F26AE40B4430E69AE4026433E62056823
:1008E0005E000324B4400F79A543BF07BF0FB74094
:1008F0002F4307604D68012D05D0022D03D0112D27
:1009000001D0122D0ED18568CF68A543B7402F4383
:10091000876047686546AF430D79ED06ED0F9D4052
:100920003D434560C568A5438C68B4402C43C46012
:100930004C68E40044D5264CA56901263543A561E1
:10094000A4699D0834400094224CAD002F19BC6866
:100950009D072E0F0F25B540AC430925ED06A84293
:1009600001D100250AE01C4DA84201D1012505E076
:100970001A4DA84201D1022500E00525B5402543C6
:10098000BD60174C25684E689543F60300D51543A6
:10099000256065684E689543B60300D515436560CC
:1009A000A5684E689543F60200D51543A560E56835
:1009B0004E689543B60200E002E000D51543E560BD
:1009C0005B1C0A681546DA4000D070E7F8BD0000ED
:1009D00000100240000001400004004800080048E8
:1009E00000040140002A01D0816170478162704794
:1009F00001488068704700001000002070B5024672
:100A000040325378202B1CD11378012B19D00123AD
:100A1000137024245470046825689D43256004687D
:100A200025681E03B5432560046825680D432560CD
:100A30000068016819430160202050700020107088
:100A400070BD022070BD70B5024640325378202B35
:100A50001BD11378012B18D0012414702423537058
:100A600003681D68A5431D6005682B680F263602C4
:100A7000B3430902194329600068016821430160FA
:100A8000202050700020107070BD022070BD00004A
:100A900070B5040006D02546403568780026002849
:100AA00002D005E0012070BD2E70204600F05AF9FA
:100AB00024206870206801684908490001600F21FE
:100AC0006068090688432168086121688A680120F6
:100AD000C00382438A60E1680129A16808D021220D
:100AE0009202114322689160E168022902D005E078
:100AF0000143F7E701212268C902516021684A6871
:100B00000F4B1A434A602168CA688243CA60616910
:100B100020690843A169090208432168C860216A65
:100B2000E0690843216808602068016801221143D8
:100B300001606664202068702663AE70002070BD7E
:100B400000800002FFB5054604464035687881B054
:100B5000202878D12878012875D001202870FFF747
:100B600047FF0746012200901923D103204601F0D8
:100B700069F900283CD1222068701020A870002656
:100B8000666403986062049860856663618D2F488F
:100B9000FF2903D9FF22228500903BE0618D21854A
:100BA00000903DE02046029901F038F916E001F08E
:100BB00071F900281CD12068406A616A0870606A77
:100BC000401C6062208D401E81B22185608D401ED8
:100BD0006085608D002801D000290CD0608D0A99B5
:100BE00000283A462046E2D101F094F900281CD0B2
:100BF000012005B0F0BD00970022802120460A9B0D
:100C000001F020F90028F3D1608DFF2805D9FF22DB
:100C10002285009601231B06C4E7608D208500967F
:100C2000208D0123C2B25B06BCE721682020C86189
:100C300021684A68064B1A404A606870AE702E7090
:100C40000020D6E7FFE70220D3E700000024008061
:100C500000E800FEFFB5054604464035687881B0DF
:100C6000202878D12878012875D001202870FFF736
:100C7000BFFE0746012200901923D103204601F050
:100C8000E1F800283CD1212068701020A8700026CF
:100C9000666403986062049860856663618D2F487E
:100CA000FF2903D9FF22228500903BE0618D218539
:100CB00000903DE02046029901F0B0F816E001F006
:100CC0004FF900281CD1606A216800788862606A48
:100CD000401C6062608D401E6085208D401E80B289
:100CE0002085618D002901D000280CD0608D0A99E3
:100CF00000283A462046E2D101F00CF900281CD029
:100D0000012005B0F0BD00970022802120460A9BFB
:100D100001F098F80028F3D1608DFF2805D9FF2253
:100D20002285009601231B06C4E7608D208500966E
:100D3000208D0123C2B25B06BCE721682020C86178
:100D400021684A68064B1A404A606870AE702E707F
:100D50000020D6E7FFE70220D3E700000020008054
:100D600000E800FE10B586B0044614216846FFF77F
:100D70004DFA1149206888421CD1104C616901204C
:100D80008005014361616169014005911221019172
:100D900003200121009002910491039069460848C4
:100DA000FFF782FDE169012040050143E161E1694E
:100DB0000140059106B010BD0054004000100240F3
:100DC00000140048024881680278891881607047E1
:100DD0001000002010B50648016810221143016080
:100DE000002000F007F800F027F8002010BD0000F8
:100DF0000020024070B504460D4D7D202978C000CA
:100E0000FFF794F901460B480068FFF78FF900F0EF
:100E1000BBFD002809D1042C07D200222146401E28
:100E200000F02AF800206C6070BD012070BD000049
:100E3000100000201C00002008B50848816901222C
:100E400011438161816911400091C26901040A4323
:100E5000C261C0690840009008BD00000010024057
:100E6000002805DBC106C90E012088400149086041
:100E70007047000000E100E010B501F011FE10BD68
:100E800005480168022211430160044801690422F7
:100E90001143016130BF70470070004000ED00E079
:100EA000F8B5044600683E4DC00352D5E8690026F7
:100EB000C00007D4E96928040143E961E9690140F8
:100EC0000126009137480168C90510D401688215D0
:100ED00011430160FFF78CFD074604E0FFF788FD32
:100EE000C01B642824D82F480068C005F6D5286A9E
:100EF00003273F02384020D06168394081421CD02E
:100F0000286A2A6AB843012109040A432A622A6A24
:100F10008A432A622862C0070FD0FFF769FD00905C
:100F200008E0FFF765FD0099411A1F48814201D989
:100F30000320F8BD286A8007F3D5286A6168B843A2
:100F400008432862002E04D0E9690120000781438C
:100F5000E9612078C00705D0286BA168800880006F
:100F6000084328632078800605D5286B1021884324
:100F7000E168084328632068800305D5286B802139
:100F800088436169084328632088400505D5286B9C
:100F9000402188432169084328630020F8BD0000F0
:100FA000001002400070004088130000F8B50F46A2
:100FB00006005FD03D4D2868C007C00FB84209D277
:100FC000286840084000384328602868C007C00FE0
:100FD000B8424FD13068364C81070CD5400704D554
:100FE000606807210902084360606068F021884357
:100FF000B168084360603078C0072CD07068012861
:1010000010D0022811D0032812D0216889070029A6
:1010100030DA61688908890001436160FFF7E8FC04
:10102000009011E021688903F1E721688901EEE76A
:10103000616BC903EBE7FFF7DBFC0099411A1D4820
:10104000814201D90320F8BD60680C210840716815
:1010500089008842EFD12868C007C00FB8420BD979
:10106000286840084000384328602868C007C00F3F
:10107000B84201D00120F8BD3078400706D560683D
:10108000072109028843F1680843606000F028F8EE
:101090006168094A0906090F515CC84007490860A0
:1010A0000020FFF7A7FE0020F8BD0000002002404E
:1010B0000010024088130000B03B00081C00002014
:1010C0000448054900684968044A4905490F515CCC
:1010D000C84070471C00002000100240C03B0008C0
:1010E00030B519A30FCB89B06C460FC41AA30FCB30
:1010F0000FC41D4A51680C200B4603401B48042BAB
:1011000005D01B4D082B04D00C2B00D1284609B06C
:1011100030BD8B021B0F6C46E45CD26A04AB120735
:10112000120FC9039A5C890F022901D0032901D04B
:10113000002301E0002328460021FFF70DF8214697
:1011400001F095FCE3E70000020304050607080927
:101150000A0B0C0D0E0F1010010203040506070800
:10116000090A0B0C0D0E0F100010024000127A003D
:10117000006CDC02FEB5040070D02078F94EFA4D08
:10118000C00748D068680007800F01281FD0686832
:101190000007800F022804D16868C003800F02286E
:1011A00015D06168012919D001208004002901D0DF
:1011B000052917D02968B14329602968814329602E
:1011C000606800281BD0FFF713FC074613E028686F
:1011D000800320D560680028CED01CE0286830430A
:1011E0002860EDE7296801432960F7E7FFF700FC75
:1011F000C01B642870D828688003F7D50BE0FFF780
:10120000F7FB074604E0FFF7F3FBC01B6428F1D8A7
:1012100028688003F7D4207880073FD568680007E6
:10122000800F14D068680007800F022804D1686816
:10123000C003800F01280AD0E068002828681ED06B
:10124000012108432860FFF7D3FB07460CE028681C
:1012500080070CD5E068012800D108E080E1FFF7A5
:10126000C7FBC01B0228C5D828688007F7D52868A7
:10127000F82188432169C900084328600EE040082E
:1012800040002860FFF7B4FB074604E0FFF7B0FB1F
:10129000C01B0228AED828688007F7D42078000742
:1012A00023D5E0690028686A0FD0012108436862ED
:1012B000FFF79EFB074604E0FFF79AFBC01B0228DE
:1012C00098D8686A8007F7D50FE040084000686248
:1012D000FFF78EFB074605E0C3E0FFF789FBC01B65
:1012E000022887D8686A8007F7D420780427400747
:1012F000002861DA00200190E869C00008D4E9699B
:10130000B8060143E961E9690140012000910190BB
:1013100096480168C90511D401688215114301601E
:10132000FFF766FB009005E0FFF762FB0099401AAB
:10133000642898D88D480068C005F5D5A0680128B4
:101340000AD0002801D0052811D0286A40084000A2
:101350002862286AB84302E0286A0121084328620B
:10136000A068002812D0FFF743FB00900AE0286A2B
:1013700038432862F0E7FFF73BFB0099411A7C48AD
:1013800081426ED8286A8007F5D50DE0FFF730FB63
:10139000009006E0FFF72CFB0099411A7448814247
:1013A0005FD8286A8007F5D40198002804D0E9693D
:1013B000012000078143E9612078C00635D56069C6
:1013C00001280CD0401D686B24D038436863686BDB
:1013D000400840006863FFF70BFB074622E0686B9C
:1013E00038436863686B012108436863FFF700FBBB
:1013F000074604E0FFF7FCFAC01B022831D8686BEF
:101400008007F7D5686BF8218843A169C9000843B4
:1014100068630AE0B8436863F4E7FFF7E9FAC01BC2
:1014200002281ED8686B8007F7D42078800637D54D
:1014300068680007800F032814D068680007800FD1
:10144000022804D16868C003800F03280AD0206AEC
:101450000028686B16D030436863FFF7C9FA064668
:101460000CE062E0686BC0031AD5206A012877D1CE
:1014700016E0FFF7BDFA801B022856D8686BC00340
:10148000F7D50DE0B0436863FFF7B2FA064604E013
:10149000FFF7AEFA801B022847D8686BC003F7D469
:1014A000606A002866D069680907890F022942D05E
:1014B000012636060228286805D0B0432860FFF7C9
:1014C00097FA044633E0B0432860FFF791FA0746E5
:1014D00004E0FFF78DFAC01B022826D82868800197
:1014E000F7D4E86A216B000900010843E862A16AA9
:1014F000E06A084369687B22D2039143084368602D
:10150000286830432860FFF773FA044604E0FFF7C9
:101510006FFA001B022808D828688001F7D529E057
:10152000FFF766FA001B022801D90320FEBD2868D8
:101530008001F5D41EE00128F8D06868E96A03222A
:10154000D203A36A02409A420AD10907226B090F0B
:10155000914205D10F2189040840E16A884209D0EF
:101560000120FEBD0000010000100240007000409C
:10157000881300000020F4E77047000010B504460F
:1015800000688168C9040CD5C068C00509D520462B
:10159000FFF7F2FF2168C86880221040FF388238C8
:1015A000C86001200249400448610120607710BDF5
:1015B0000004014070B5040003D0607F002802D011
:1015C00006E0012070BD00202077204600F04CF896
:1015D000022060772168CA2048622168532048624F
:1015E000204600F0FAFDFF250426002824D12068BB
:1015F00081681C4A1140816021688868626863695B
:10160000104322691A43104388602168E06808612A
:101610002068016922891204114301612068C168B0
:1016200080229143C16020688068800608D42046EB
:1016300000F090F9002803D0206845626677C0E783
:101640002068016C01229204914301642068016CBE
:10165000A26911430164206845620120607700207F
:1016600070BD0000BFFF8FFF10B5006808498842B9
:101670000DD10848016A0122D20311430162002200
:1016800011460220FFF7F8FB0220FFF7E9FB10BD2F
:101690000028004000100240F8B50446007F0B46C9
:1016A000012839D0012020770220607720681F466A
:1016B000203700268068002A30D0400600D4DE7033
:1016C00019789D7809040D435978DA7809021204D3
:1016D00011430D433978D86909060D43054358690C
:1016E000996905435868084300902168CA204862F8
:1016F00021685320486220688168FF2201329143AB
:1017000081602068C16880221140FF398239C16040
:10171000FFF76EF9074629E00220F8BD400600D425
:10172000DE70187800F04EFD0504587800F04AFD90
:1017300000020543987800F045FD0543D878000481
:101740000543387800F03EFD00060543D869C5E73B
:10175000FFF74EF9C11B7D20C000814206D92168E8
:10176000FF204862032060772677F8BD2068C068B4
:10177000C007EDD02068C5612168009848642068E2
:101780008168FF2201321143816020688168120163
:101790001143816008480268012149040A4302603C
:1017A00082680A4382602168FF20486201206077D6
:1017B00026770020F8BD000000040140F8B504467B
:1017C000007F0B4601280FD0012020770220607790
:1017D000002A0BD0D8789D78000405435878097802
:1017E00000024903084317E00220F8BD5878C106FB
:1017F00003D5EF2108400A305870D87800F0E2FC99
:101800000504587800F0DEFC00020543987800F0EB
:10181000D9FC05431878400305432168CA20486273
:10182000216853204862204600F0D7FC0026FF279D
:10183000002811D10F480540206845602068C16824
:1018400080229143C1602068806880060BD42046C6
:1018500000F080F8002806D02068476204206077F6
:1018600026770120F8BD206847620120607726773F
:101870000020F8BD3FFFFF00F8B50446007F0D468D
:10188000012821D0012020770220607720680027DE
:101890008068002A1AD0400600D4EF702878AE780D
:1018A000000406436878E978000209040843064307
:1018B0002168CA204862216853204862204600F00F
:1018C0008CFC002834D114E00220F8BD400600D47E
:1018D000EF70287800F076FC0604687800F072FC5F
:1018E00000020643A87800F06DFC0643E878000487
:1018F000DDE71748064020680660206881680122FD
:101900009204914381602969E868084321688A68E4
:10191000104388602068C16880229143C1602068BC
:10192000806880060CD4204600F014F8002807D008
:101930002168FF2048620420607727770120F8BDE6
:101940002168FF2048620120607727770020F8BDDA
:101950007F7F7F0070B504460068C168A022914374
:10196000C160FFF745F87D260546F60006E0FFF763
:101970003FF8401BB04201D9032070BD2068C06809
:101980008006F4D5002070BD094910B5401E88427C
:1019900001D9012010BD074C60610321081F01F02F
:1019A0007FF80020A06107202061002010BD00000A
:1019B000FFFFFF0000E000E070477047F8B50268E5
:1019C0000446D06911689368524D05402E46202583
:1019D000002E68D0DE07F60FFF2721370F40374370
:1019E00075D0C70706D0CF0504D501271762E26F6F
:1019F0003A43E267820708D5DA0706D02768022251
:101A00003A62E26F04273A43E267420708D5DA07F1
:101A100006D0236804221A62E26F02231A43E267A7
:101A2000020709D50A462A40324305D02368082216
:101A30001A62E36F1343E367020508D54A0106D52E
:101A400001222368D2021A62E26F2A43E267E26F40
:101A5000002A30D0800606D5880604D5216E0029DC
:101A600001D020468847E06F21688968490602D482
:101A70002821084224D0204600F0B0FC206881686C
:101A8000490619D58168402291438160E06E0028A3
:101A900012D021494163E06EFEF7CFFE00280AD044
:101AA000E06E416B06E0860611D58E060FD5216EDD
:101AB0001DE020468847F8BD2046FFF77EFFF8BDB1
:101AC0002046FFF77AFF0020E067F8BDFFE7C60277
:101AD00008D55B0206D50120000510622046FFF7FD
:101AE0006BFFF2E7030605D50B0603D5616E0029EF
:101AF000DFD1EAE74006E8D54806E6D51368204678
:101B000040218B43136065670021616600F03AF95C
:101B1000DBE700000F080000C923000810B504002F
:101B200003D0606F002802D007E0012010BD002123
:101B300070200155204600F027F8242060672068B7
:101B40000168490849000160204600F057FC01285F
:101B5000ECD0606A002802D0204600F0A0FB20688C
:101B600041680922D20291434160206881682A229B
:101B70009143816020680168012211430160204681
:101B800000F0F2FB10BD0000F0B587B00446142150
:101B90006846FEF73BFB264F0121266800222548B8
:101BA0004904022303240125BE421DD18769CE10BA
:101BB0003743876187693740059746690E43466119
:101BC00040690193084005906002009002AE34C65F
:101BD00009206946C006FEF767FE002211461B2059
:101BE000FFF74AF91B201EE0134FBE421DD1C66904
:101BF0000E43C661C6690E40059646690E434661AE
:101C000040690193084005900C20009002AE34C654
:101C100009206946C006FEF747FE002211461C2037
:101C2000FFF72AF91C20FFF71BF907B0F0BD0000F1
:101C3000003801400010024000440040FFB5044657
:101C4000406F83B017460D4620285CD1002D0AD086
:101C5000002F08D0A168C001814207D12069002867
:101C600004D1E80702D0012007B0F0BD2046603063
:101C70000290007C012846D00298012101740020C6
:101C8000E06721206067FEF7B3FE264640360190EC
:101C9000378277820120A1680003814202D1206946
:101CA000002802D02F46002511E000270FE0002277
:101CB0008021204600F084FC002815D1002F15D08B
:101CC0002168387808857F1C708A401E7082708A6F
:101CD000019B002806980090E9D10022402120466F
:101CE00000F06EFC002808D00320BDE7288821689A
:101CF000C005C00D0885AD1CE6E72020606702998D
:101D000000200874B0E70220AEE7000070B5436F12
:101D1000202B30D100290AD0002A08D08568DC01A8
:101D2000A54206D10369002B03D1CB0701D00120C6
:101D300070BD034660331E7C012E1CD001261E742C
:101D4000C164014640310A824A8200214166C1676E
:101D500021224267A54202D10269002A09D0074A1E
:101D600042661974006801688022114301600020F6
:101D700070BD034AF4E7022070BD0000852500080D
:101D8000452500087047FEE701688A69D24392073B
:101D900001D400228A6200688169C943C90703D05F
:101DA000816901221143816170470000F7B5044643
:101DB00000680E468069C043C0062BD42027254604
:101DC000403520688069C043800612D5701CF8D069
:101DD000FEF70EFE0299401AB04201D8002EF0D153
:101DE000606C384360646F700020A8702870012018
:101DF000FEBD21681020C8612068C7612046FFF73A
:101E0000C3FF20684168044A11404160606C0421AE
:101E10000843E7E70020FEBD00E800FEF0B50668D5
:101E2000059C7568064F600D384385438805800D15
:101E3000110408431843204305437560F0BD0000BA
:101E4000FF63FF03F8B51D4617460E46044609E03A
:101E5000681C07D0FEF7CCFD0699401AA8420BD8A3
:101E6000002D09D020688169304688430FD00020BA
:101E7000B842EDD00020F8BD616C202001436164C0
:101E8000403460700020A07020700120F8BD012057
:101E9000EEE70000F7B5002720260546044640354A
:101EA00028E02046029A0199FFF780FF002801D020
:101EB0000120FEBD20688069C043800611D42068DF
:101EC0008169C943490702D4218D002917D1C66110
:101ED000206841680E4A1140416067646E70AF70BF
:101EE00013E0FEF785FD0299411A0198814208D856
:101EF000002806D020688069C0434007D1D4002064
:101F0000FEBD606C304360646E702F70D0E70000DF
:101F100000E800FE70B516460D4604460FE0324656
:101F200029462046FFF742FF002801D0012070BD5E
:101F3000FEF75EFD801BA84208D8002D06D0206861
:101F40008069C0438006EAD4002070BD616C202007
:101F500001436164403460700020A0702070E5E7A8
:101F600070B516460D46044611E032462946204615
:101F7000FFF71CFF002801D0012070BD681C06D0AF
:101F8000FEF736FD801BA84208D8002D06D0206839
:101F90008069C0438007E8D4002070BD616C2020B8
:101FA00001436164403460700020A0702070E3E75A
:101FB00070B586B014216846FEF728F91E484269BC
:101FC000012189040A43426142690A40059242693B
:101FD00009010A43426142690A4005924269491176
:101FE0000A434261406909260840F606059000222E
:101FF00030213046FEF7F6FCFF2003300325002495
:1020000000906946019502940C48FEF74DFCC320F0
:1020100000906946019502943046FEF745FC302059
:102020000090012001900294694603943046FEF727
:102030003BFC06B070BD00000010024000040048E8
:1020400010B51348114901601249416000218160B7
:102050000161416181610122C161C2600162FEF7DB
:1020600017FD002801D0FEF7E7FB00210848FEF726
:10207000C5FC002801D0FEF7DFFB00210448FEF775
:10208000E2FC002801D0FEF7D7FB10BD0054004051
:1020900020000020FE09002030B591B014216846D0
:1020A000FEF7B4F80024282106A80594FEF7AEF840
:1020B0002549264812C07F2101608460FF21C46049
:1020C0003831046141600838FFF774FA002801D004
:1020D000FEF7B2FB012568460570447084700394D6
:1020E0000022694619480494FFF7C6FB002801D076
:1020F000FEF7A2FB6846057545758575C475002217
:1021000005A91248FFF75AFB002801D0FEF794FBFF
:1021100068460576142141768476079409940A94DA
:102120000B940C9408A80D940576FF2001300F90B5
:10213000002206A90548FFF7AFFA002801D0FEF7F4
:102140007BFB11B030BD0000002800406C00002077
:1021500010B50C480A490160E121490241600021A3
:102160008160C16001618161C1610C2201624261D3
:102170004162FFF7D3FC002801D0FEF75DFB10BDE4
:10218000003801408C00002010B50C480A4901605D
:10219000E1214902416000218160C16001618161EA
:1021A000C1610C22016242614162FFF7B7FC002865
:1021B00001D0FEF741FB10BD004400400C0100209F
:1021C00070477047002102E00A38C0B2491C0A2853
:1021D000FAD20907090E0843704770B50446006833
:1021E000C168490613D40021C943C160FEF700FC51
:1021F0007D260546F60006E0FEF7FAFB401BB042DE
:1022000001D9032070BD2068C0684006F4D50020C5
:1022100070BD000010B50248FFF7B0F910BD000016
:102220006C000020704710B5FEF7CCFD10BD00001B
:1022300030B597B034216846FDF7E8FF00241394C9
:102240001494159418210DA81694FDF7DFFF0A20A9
:102250000090012007900390C0030A9002254001DE
:10226000102109950B9004910C946846FEF782FFAB
:1022700007201390159401211495169413A8FEF7C6
:1022800095FE05480D90C0110E900F9410940DA866
:10229000FEF706FE17B030BD21000100704710B5F3
:1022A000818CC90707D001684A6801235B049A43FF
:1022B000836A1A434A60818C890707D501684A6896
:1022C00001231B049A43C36A1A434A60818C49075D
:1022D00007D501684A6801239B049A43036B1A439C
:1022E0004A60818C090707D501684A680123DB032E
:1022F0009A43436B1A434A60818CC90607D502682A
:10230000916801231B039943836B19439160818C6E
:10231000890607D501688A6801235B039A43C36B6A
:102320001A438A60818C490612D503685A680121D4
:102330000905046C8A4322435A60026C8A4207D121
:102340000268516803235B059943436C194351604C
:10235000818C090607D501684A680123DB04806C7B
:102360009A4302434A6010BDF8B500260446C6678A
:10237000FEF73EFB054620680068124F000709D5AE
:1023800001212B46002249052046009700F018F94C
:1023900000280DD12068006840070BD501212B468D
:1023A000002289052046009700F00AF9002801D094
:1023B0000320F8BD20206067A067603426740020E9
:1023C000F8BD0000FFFFFF0110B5406A0022014682
:1023D00040314A834A82FFF7F0FA10BD01680A686B
:1023E000FF2321339A430A6001688A685208520029
:1023F0008A602021816700210166704770B504461C
:1024000080682169E26908436169002511432268F7
:1024100008431168444B1940014311602168486822
:10242000032212039043E26810434860A169206AC6
:102430002268084391680B231B0299430143916072
:102440003A492068884210D13948006B8007800FD4
:1024500011D0012805D0022805D003280AD1022076
:1024600009E0042007E0082005E03249884201D154
:10247000002000E010200122E169D2032E4E91429B
:1024800028D1002806D0022807D0042817D0082811
:1024900044D11AE0FEF714FE13E06168274A4808A9
:1024A0008018FDF743FE80B201461039B14235D89D
:1024B0002149491C01400007400F084321E0FEF775
:1024C0000FFE616840004A08EAE761680122480897
:1024D0001204E5E7002806D0022807D0042813D00C
:1024E00008281BD116E0FEF7EBFD0FE06168144AE7
:1024F000480811E0FDF71AFE80B201461039B142DA
:102500000CD82168C8600AE0FEF7EAFD61684A0855
:102510001018EFE7616848088018EBE701250020F4
:1025200020666066284670BDF369FFEF0038014001
:102530000010024000440040EFFF00000024F400BF
:1025400000127A00416F212910D1014640314A8A98
:10255000002A0CD0C26C03681288D205D20D1A85ED
:10256000C26C921CC264488A401E4882704701684F
:102570000A6880239A430A60006801684022114378
:1025800001607047416F21290ED1014640314A8ACE
:10259000002A0AD0C26C036812781A85C26C521CD9
:1025A000C264488A401E4882704701680A688023D6
:1025B0009A430A6000680168402211430160704735
:1025C000FFB581B005460F46044660350A9E38E0E7
:1025D000701C36D0FEF70CFA0499401AB04221D88C
:1025E000002E1FD02068016849072AD5C069C04362
:1025F000000526D401202168C00208622068016815
:10260000FF22A13291430160206881684908490096
:10261000816020206067A067E067002028740320A5
:1026200005B0F0BD20680168FF22A132914301602E
:102630002068816849084900816020206067A067A0
:10264000EBE72068C1693846884305D0002103982C
:102650008142BDD00020E3E70121F8E710B5024830
:10266000FFF7ACF910BD00008C000020F8B58148E0
:10267000FFF7A4F97F480068026820210A4302603E
:102680007D48C069800634D57B48203080887B4CEB
:10269000C0B27B4E20700D2801D00A2802D1A2883A
:1026A000002A03D0A288B054521CA28090B2821E8D
:1026B0000025392A7AD23218203A937F0D2B02D185
:1026C000D27F0A2A16D02289930612D5022810D169
:1026D00030783E280DD1707820280AD1A5800020BE
:1026E0003554401C80B23C28FAD38A431020024360
:1026F0002281F8BD355463A16148FDF792FD0028A1
:102700000DD162A15E48FDF78CFD002807D161A1C3
:102710005B48FDF786FD002801D1A0883554A580CF
:102720005FA15748FDF77DFD0227002804D02089CE
:10273000810701D5B8436FE05BA15148FDF771FDFA
:10274000002807D02189042001432181E188014329
:10275000E18028E057A14A48FDF763FD002805D035
:102760000121474800F0C0FFA5806EE053A1444816
:10277000FDF757FD002808D02189042081432181DD
:10278000A079800761D4E7805FE050A13C48FDF765
:1027900048FD00280BD0012152A000F0A5FF2089A0
:1027A0000821084320816570A5704EE054E055A1D2
:1027B0003348FDF736FD00280BD154A13048FDF712
:1027C00030FD002805D153A12D48FDF72AFD002832
:1027D0000ED0012154A000F087FF218908208143F9
:1027E0002181E1880143E180FEF702F9E0602CE0FD
:1027F00056A12348FDF715FD002804D0012156A05D
:1028000000F072FF21E05EA11D48FDF70AFD0028DF
:1028100004D001215DA009E0012114E065A1184860
:10282000FDF7FFFC002806D0012165A000F05CFF49
:10283000E7802089F0E76AA11148FDF7F2FC002843
:1028400003D0208940210843208100203554401CBA
:1028500080B23C28FAD3F8BD3C28FCD30020355484
:10286000401C80B23C28FAD3A580012160A000F072
:102870003BFFF8BD0C010020004400400000002098
:102880008C010020526563762000000053454E44C1
:10289000204F4B006275737920702E2E2E000000A1
:1028A0004F4B0D0A000000005749464920474F543E
:1028B000204950002B43574C41503A005749464954
:1028C00020444953434F4E4E45435400436F6E6E70
:1028D000656374696F6E2073756363657366756C89
:1028E000000000004372656174696E6720544350B4
:1028F00020746F2074686520736572766572204F4E
:102900004B0D0A00434C4F5345440000434F534581
:10291000440000006C696E6B206973206E6F742038
:1029200076616C69640000004372656174696E676A
:102930002054435020746F2074686520736572764C
:102940006572204552524F520D0A00002B43574AE0
:1029500041503A3200000000496E76616C69642093
:1029600070617373776F726421205265626F6F7448
:10297000206465766963652E2E2E0D0A0000000026
:102980002B43574A41503A3300000000506F696EA4
:102990007420646F6573206E6F742065786973743A
:1029A00021205265636F6E6E6563742E2E2E0D0AA4
:1029B000000000002B43574A41503A31000000000C
:1029C00054696D656F7574206572726F7221205243
:1029D00065636F6E6E6563742E2E2E0D0A00000007
:1029E00054454D505F4143434550540D0A0000008B
:1029F000427566666572206973206F7665726C6FCA
:102A0000616465642E2053746F702072656369760B
:102A1000652E2E0D0A0000000FB410B504A9074B57
:102A200002AA039800F028F9044602A9002000F049
:102A3000BFFC204610BC08BC04B01847B1330008E6
:102A40002021020C01D010211046020A01D01046AC
:102A50000839020901D01046091F820801D010462A
:102A6000891E420801D0881E7047081A7047F8B5C1
:102A7000040C8BB2264682B25E430D0C1046370C16
:102A80005843360480190021794116466E43370CAD
:102A900036048019794126466E438919F8BD000035
:102AA0008307FF22DB0E9A408907090E9940002810
:102AB00008DB830809489B001B18186890430843EB
:102AC000186070470007000F0838830804489B000F
:102AD0001B18D86990430843D861704700E400E0B0
:102AE00000ED00E002E008C8121F08C1002AFAD178
:102AF00070477047002001E001C1121F002AFBD17E
:102B000070470000F0B51FB486B00998089A030D0D
:102B10000021024314D05148514A1818504305145B
:102B20001198012810981AD0281A401C00264D4FE1
:102B30004D49009601910490002812DA444211E0B8
:102B40001198012449A3012801D11098C143069886
:102B5000119A84600360C26041600BB0F0BD4042D6
:102B6000E4E70446210500203F4A001C514103913F
:102B7000029012E0E00707D032463B4601990098E8
:102B8000FDF71CFC0191009032463B461046194669
:102B9000FDF714FC06460F466410002CEAD1049899
:102BA000039B0028029A0999089806DAFDF706FCAB
:102BB000019B009AFDF702FC05E0FDF77FFD019BFC
:102BC000009AFDF77BFD04460E460022284BFDF7D8
:102BD0000DFE03D80020C043014607E00022254B2C
:102BE00020463146FDF738FBFDF7E0FD102409E0F3
:102BF000002C0ADB0A220023FDF7AEFA079B3032D5
:102C00001A55641E02460A43F2D11122641C079B26
:102C1000121B1C19119B012B03D0012308430ED159
:102C20000AE0084304D0112010900020119077E7AB
:102C30001098151A6D1E0BE01098824202DD0023D9
:102C40006D1C03E0824201DA00236D1E002BEED0E2
:102C5000069811998260C16030C07EE701FCFFFFD9
:102C6000104D0000000014400000F03F3000000054
:102C70000000F0430000E03FFFB597B00646002596
:102C800018E2252877D100242746FD49049400E066
:102C90000443761C32780120203A90400842F7D154
:102CA00030782A280ED0022230780146303909299E
:102CB00016D804990A235943303940181443761C16
:102CC0000490F1E7189802C804911890002904DADA
:102CD0000120400304434842049002200443761C30
:102CE00030782E2814D1042004437078761C2A28CA
:102CF00009D11898761C80C8189009E00A214F4322
:102D0000303FC719761C3078014630390929F5D98A
:102D100030786C2810D006DC4C281AD068280ED0E9
:102D20006A2817D104E0742813D07A2812D110E051
:102D30000120400504430CE00121090501E00321C5
:102D400009050C437178814203D101200005241844
:102D5000761C761C3078119066280BD013DC58282E
:102D60007DD009DC00287BD04528F6D04628F4D059
:102D700047281AD1A5E118E0632835D0642870D01F
:102D8000652812D19DE170286CD008DC6728F1D04D
:102D900069287BD06E280DD06F2806D1BAE0732841
:102DA0002ED0752871D0782859D01A9A1999904741
:102DB0006D1C7EE16002400F022809D003280DD06F
:102DC0000428189801680DD00D60001D189070E15E
:102DD0001898EA1701680D604A60F6E718980168CC
:102DE0000D80F2E70D70F0E718986A4601781172CD
:102DF000001D18900020507202A80090012005E0EC
:102E0000189802C8189000200091C04361070DD5A2
:102E1000002101E00199491C0191B94212DA814275
:102E2000F8DB009A515C0029F4D10BE0002101E0AD
:102E30000199491C01918142FADB019A0099895C50
:102E40000029F5D1019904981A9B471A2146384662
:102E5000199A00F097FA0199401945180BE04FE0D4
:102E60002CE113E04EE0009800990078491C009195
:102E70001A9A199990470198401E0190401CF2D16E
:102E8000214638461A9B199A10E137E00A200021A2
:102E9000009001916002410F022907D0189A01CADF
:102EA0001892C2179446032908D00AE01898C01D4A
:102EB000C108C90005C91891944607E000B2C217BD
:102EC0009446042902D140B2C1178C4600226146C3
:102ED000944506DA0A460021404291418C462D2154
:102EE00002E0210504D52B216A461173012103E07C
:102EF000E10701D02021F7E7029155E00A200AE01E
:102F0000102008E0102000900021042004430191CB
:102F1000082703E008200021019100906002410F82
:102F2000022907D0189A01CA189200229446032950
:102F300008D008E01898C01DC108C90005C918913B
:102F4000944603E080B2042900D1C0B2002102916E
:102F5000210729D51199702906D0009A1021019BCB
:102F60004A401A4305D00EE040216A461173012100
:102F700008E06146014306D030216A461173119979
:102F8000517302210291009A0821019B4A401A4381
:102F90000AD16146014301D1610705D530216A4656
:102FA000117301217F1E02911199582904D035A176
:102FB0000E910DA90D910DE037A1F9E76146019B36
:102FC000009AFDF7C9F80E9B8C469B5C0D9A521E29
:102FD0000D92137061460143F0D10D9805A9081AAE
:102FE00020300190600703D501200004844300E0F5
:102FF00001270198874201DD381A00E0002001997D
:1030000000904118029809180498401A0490E003AF
:1030100006D421461A9B199A049800F0B3F9451971
:10302000002706E003A81A9AC05D199990476D1C05
:103030007F1C02988742F5DBE0030CD521461A9BE2
:10304000199A049800F09EF9451904E01A9A302064
:10305000199990476D1C0099481E00900029F5DCD5
:1030600008E00D980D990078491C0D911A9A19994C
:1030700090476D1C0199481E01900029F1DC63E125
:10308000092801003031323334353637383961623E
:103090006364656600000000303132333435363702
:1030A00038394142434445460000000000F05AF9D7
:1030B0004519761C3078002800D0E2E528461BB080
:1030C000F0BD600700D406271898C01DC108C900CC
:1030D00048680A680831C30FDB071891190001D04E
:1030E0009CA108E0210501D59BA104E0E10701D0E6
:1030F0009AA100E09AA1430011985B0810916528FD
:103100000CD006DC452809D046281DD0472841D1DF
:1031100041E0662818D067283CD13CE00021112FFF
:1031200001DB112000E0781C0191009008A911A892
:10313000FFF7E8FC139905910021119A15927F1C65
:1031400012980197009150E00120C00703900120E0
:10315000019008A9009711A8FFF7D4FC139A1499BD
:1031600005920022119B009212981593059A0192E4
:10317000002901D0104602E0791C40180190381A4D
:1031800001D5019804E04042401E0090781C019057
:10319000C01B029043E0012F00DA01270021112F0C
:1031A00001DD112000E038460191009008A911A826
:1031B000FFF7A8FC13990591119A00211298159216
:1031C0000091019721070CD40599B94201DB0199BF
:1031D00000E00191012904DD159A491E515C302956
:1031E00006D0B84201DA011D05DA0121029115E08D
:1031F0000199491EEDE7002805DC0099411800916E
:103200000199091A03E0019A411C914200DD0191E4
:103210000099401A401C02900120C007039020072B
:1032200006D402990198814202DB0020C04302903B
:1032300000206946C87707AF012103980337C90703
:10324000884224D0022011902B201290039800284D
:103250000CDA404203902D20129007E00A210398D7
:10326000FCF764FF30317F1E039039701199481EBE
:1032700011900029F2DC03980028EFD1791E1298F2
:1032800008703078202108404530BF1E387006A8ED
:10329000C01BC01D039010980078002800D00120AA
:1032A000019941180298C017091803980918049841
:1032B000401A401E0490E00306D421461A9B199A36
:1032C000049800F05FF8451910980078002803D0A2
:1032D0001A9A199990476D1CE00324D521461A9B30
:1032E000199A049800F04EF845191CE0009800283F
:1032F00007DB00990598884203DD1598405C199911
:1033000001E0199930201A9A904700986D1C401CD2
:1033100000900298401E0290002804D11A9A2E2094
:10332000199990476D1C0199481E01900029DDDC18
:1033300005E038781A9A7F1C199990476D1C0399FB
:10334000481E03900029F4DC21461A9B199A049820
:10335000ACE600002D0000002B0000002000000063
:1033600000000000F8B5044600251E4617468804F4
:1033700004D405E039462020B0476D1C641EF9D501
:103380002846F8BDFFB50446002581B01E46C80397
:1033900001D5302700E02027880404D505E0384611
:1033A0000399B0476D1C641EF9D5284605B0F0BDE1
:1033B0000A68531C0B601070704713B586B0044642
:1033C00014216846FCF722FFAA20694608702146AE
:1033D0006C460C22601CFCF700FF03A8042207A91E
:1033E0000130FCF7FAFE0120FF21225C002A00D107
:1033F0002154401CC0B20E28F7D31021684600F0BB
:1034000053F969468882087D4874487D8874132181
:10341000684600F01FFA08B010BD000030B50C4639
:103420000546C1B000211AA000F05EF92049002035
:10343000086020480B22018891430180FF2101315F
:1034400001A8FCF7E3FE2B461BA220A101A80094D3
:10345000FFF7E2FA6420FDF715FA1FA000F0ECF97F
:10346000FF202D30FDF70EFA01A800F0E5F91E4906
:10347000082208881D4B904308801A78521CD2B24B
:103480001A70032A02D901221043088041B030BDCE
:103490004372656174696E672061205443502074E3
:1034A0006F20746865207365727665720D0A00007E
:1034B0000C0000200800002041542B434950535475
:1034C0004152543D22544350222C000025732225A2
:1034D00073222C25730D0A0041542B434950434C51
:1034E0004F53450D0A000000060000200200002096
:1034F00070B56420FDF7C6F9264C2088C10704D0BA
:1035000000F0C8FA0028FBD070BD810704D522A1C5
:1035100024A000F06BF870BD244D41071ED528880B
:103520000221084340084000288021A000F084F9CF
:1035300002E00120FDF7A6F92878C007F9D00021A4
:103540001DA000F0D1F82888042140084000288000
:103550002088884308210843208070BD000710D5CB
:10356000FDF746FA18490968401A1849884203D8F5
:10357000174800780028F0D116A118A0FFF74EFFD9
:1035800070BD28780007FBD500F0BEF900F05EFAA8
:1035900070BD000006000020323031313932383839
:1035A000000000004D6920413300000008000020A9
:1035B00041540D0A000000004950206164647265A6
:1035C00073204F4B210D0A000C000020B80B0000A7
:1035D0000200002037373730000000003139322E2A
:1035E0003136382E34332E323030000030B50C46B0
:1035F00005461B49C1B0002008601A480188090926
:1036000009010180FF21013101A8FCF7FFFD2B46D4
:1036100015A218A101A80094FFF7FEF919A000F067
:10362000D1F96420FDF72EF901A800F005F9002179
:1036300001A800F059F8002115A000F055F818492C
:1036400002220888174B904308801A78521CD2B285
:103650001A70032A02D901221043088041B030BDFC
:103660000C0000200800002041542B43574A4150D1
:103670003D0000002573222573222C222573220D84
:103680000A00000041542B43575141500D0A0000DD
:10369000436F6E6E65637420574946490D0A0000FA
:1036A000060000200100002030B502460C480D4CF9
:1036B0000FE013781B0258400023521C050402D56A
:1036C0004000604000E040005B1CDBB280B2082B91
:1036D000F4D30B46491E89B2002BEAD130BD00005D
:1036E000FFFF00002110000010B50446002907D09C
:1036F000FCF7ABFD82B221460648FEF707FB10BD82
:10370000FCF7A3FD82B2642321460248FEF796FA35
:1037100010BD00008C000020FDF75CFBFEF788FD6B
:10372000FEF746FCFEF730FDFEF78AFCFEF710FDC3
:10373000FEF7B2FC114801210160114A81041160B9
:1037400001682C22114301600920C0064169202232
:1037500011434161FF209130FDF794F8C820FDF737
:1037600091F8002107A0FFF7BFFF00F04FF8FFF727
:10377000BFFE6420FDF786F8F9E700000044004032
:1037800000E100E053746172742073797374656DA5
:103790000D0A00003EB5E32069460871144C012370
:1037A00001AA802113480094FDF754FA124D002815
:1037B00008D1022302AA80210E480094FDF7C2F925
:1037C000002801D028463EBD6846008940BAFCF773
:1037D00073FE0A4A0A4BFCF7F1FD0F22D243FCF7B5
:1037E00055FE084A084BFCF7DBFDFCF787FE3EBDA3
:1037F0001027000020000020000080BFD7A3703DEC
:103800000AF76540CDCCCCCCCC6C47401CB5FE2033
:103810006946087106480090012301AA80210548E5
:10382000FDF718FA002801D00020C0431CBD00009D
:10383000102700002000002010B50446FCF705FD0D
:1038400082B2642321460248FEF7F8F910BD000059
:103850000C010020F3B5244C0E4620888BB00107E4
:103860003BD52021084310218843208000252821B2
:103870006846FCF7CBFC33461CA21FA16846FFF745
:10388000CBF86846FFF7D8FFFF27F53705E06D1C3A
:10389000BD4205D20A20FCF7F5FF2078C006F6D518
:1038A0000020024669460A54401CC0B22828FAD3B8
:1038B000002004E00B9A125C0A54401CC0B2B042D3
:1038C000F8D3BD420BD82088102188432080684659
:1038D000FFF7B2FF0A20FCF7D5FF0DB0F0BD08A03E
:1038E000FFF7AAFFF9E700000800002041542B432E
:1038F000495053454E443D00257325640D0A000090
:103900002B2B2B0D0A000000F0B589B0142168465E
:10391000FCF77CFC23480024C16A0591016B0691E9
:10392000406B0790FFF736FF641CE4B2052CF9D317
:10393000FFF730FFFCF7CEFD02460B461AA16846A2
:10394000FFF76AF800216846FFF7CEFE00261B4C01
:10395000402720880025B8432080FFF71BFF014641
:1039600005A8FFF72AFD06E06D1CEDB21E2D06D856
:103970006420FCF787FF20784006F5D502E0207828
:10398000400604D52088B843208009B0F0BD761CDD
:10399000F6B2032EDDD30A480822018811430180C4
:1039A000F3E7000080F7FF1F74656D706572617446
:1039B0007572653D252E32660D0A00000800002054
:1039C0000600002070B51A4D06462A8802200243E0
:1039D00050084000288000243046FCF736FC82B2B4
:1039E000642331461348FEF729F900213046FFF7DA
:1039F0007BFEFF26F53605E0641CB44205D20120AB
:103A0000FCF740FF28788007F6D4B44209D2288812
:103A1000002140084000288007A0FFF765FE012034
:103A200070BD002106A0FFF75FFE002070BD000002
:103A3000080000200C0100204F4B210D0A0000005F
:103A40004552524F52210D0A0000000000B585B0CA
:103A500014216846FCF7DAFB012069460870002053
:103A6000487088700390024604900848FDF704FFF0
:103A7000002801D0FCF7E0FE05480168042211434C
:103A80000160FDF7FDF905B000BD00006C000020ED
:103A900000700040F0B585B024490020087024492A
:103AA000244C08701ECC6D461EC52349234A08804D
:103AB00001465054491C89B23C29FAD30924E40632
:103AC00060691025A8436061FF26F5363046FCF793
:103AD000D9FE6069284360613046FCF7D3FE0021BF
:103AE00017A0FFF701FE00246F460025A60006E0A0
:103AF0006D1CEDB2052D02D9002005B0F0BDB859FE
:103B0000FFF760FF0028F3D0641CE4B2042CECD370
:103B1000002117A0FFF7E8FD20490222088840088D
:103B20004000104308800120E7E70000010000206A
:103B300002000020A03B0008040000208C010020AF
:103B400057494649207365747570202D20535441A0
:103B500052540D0A2A2A2A2A2A2A2A2A2A2A2A2AB0
:103B60002A2A2A2A2A2A2A2A2A2A2A0D0A00000070
:103B70002A2A2A2A2A2A2A2A2A2A2A2A2A2A2A2AA5
:103B80002A2A2A2A2A2A2A0D0A57494649207365D1
:103B9000747570202D20454E440D0A00060000204B
:103BA000E83B0008F03B0008C83B0008D83B000891
:103BB00000000000000000000102030406070809DD
:103BC000000000000102030441542B4349504D4FB3
:103BD00044453D300D0A000041542B4349504D559A
:103BE000583D300D0A000000415445300D0A0000D8
:103BF00041542B43574D4F44453D310D0A000000C1
:103C0000203C00080000002020000000E42A0008FA
:103C1000403C000820000020A8050000F42A00080D
:103C20000000000000000100000000000000000093
:103C300001000000040000000000000000127A00F3
:04000005080000C12E
:00000001FF
